{
  "contractName": "PaypalUSDCAssetPool",
  "abi": [
    {
      "inputs": [
        {
          "internalType": "contract ICommitmentVerifier",
          "name": "_commitmentVerifier",
          "type": "address"
        },
        {
          "internalType": "contract IWithdrawalVerifier",
          "name": "_withdrawalVerifier",
          "type": "address"
        },
        {
          "internalType": "contract IHasher",
          "name": "_hasher",
          "type": "address"
        },
        {
          "internalType": "uint32",
          "name": "_merkleTreeHeight",
          "type": "uint32"
        },
        {
          "internalType": "address",
          "name": "_USDCTokenAddress",
          "type": "address"
        }
      ],
      "stateMutability": "nonpayable",
      "type": "constructor"
    },
    {
      "anonymous": false,
      "inputs": [
        {
          "indexed": true,
          "internalType": "bytes32",
          "name": "commitment",
          "type": "bytes32"
        },
        {
          "indexed": false,
          "internalType": "bytes32",
          "name": "root",
          "type": "bytes32"
        },
        {
          "indexed": false,
          "internalType": "uint32",
          "name": "leafIndex",
          "type": "uint32"
        },
        {
          "indexed": false,
          "internalType": "bytes32[]",
          "name": "pathElements",
          "type": "bytes32[]"
        },
        {
          "indexed": false,
          "internalType": "uint32",
          "name": "pathIndices",
          "type": "uint32"
        },
        {
          "indexed": false,
          "internalType": "uint256",
          "name": "timestamp",
          "type": "uint256"
        }
      ],
      "name": "InsertCommitment",
      "type": "event"
    },
    {
      "anonymous": false,
      "inputs": [
        {
          "indexed": true,
          "internalType": "address",
          "name": "previousOwner",
          "type": "address"
        },
        {
          "indexed": true,
          "internalType": "address",
          "name": "newOwner",
          "type": "address"
        }
      ],
      "name": "OwnershipTransferred",
      "type": "event"
    },
    {
      "anonymous": false,
      "inputs": [
        {
          "indexed": true,
          "internalType": "address",
          "name": "sellerAddress",
          "type": "address"
        },
        {
          "indexed": false,
          "internalType": "uint256",
          "name": "amount",
          "type": "uint256"
        }
      ],
      "name": "SellerDeposit",
      "type": "event"
    },
    {
      "anonymous": false,
      "inputs": [
        {
          "indexed": true,
          "internalType": "address",
          "name": "to",
          "type": "address"
        },
        {
          "indexed": false,
          "internalType": "uint256",
          "name": "amount",
          "type": "uint256"
        },
        {
          "indexed": false,
          "internalType": "bytes32",
          "name": "nullifierHash",
          "type": "bytes32"
        },
        {
          "indexed": false,
          "internalType": "address",
          "name": "relayer",
          "type": "address"
        },
        {
          "indexed": false,
          "internalType": "uint256",
          "name": "fee",
          "type": "uint256"
        }
      ],
      "name": "Withdrawal",
      "type": "event"
    },
    {
      "inputs": [],
      "name": "FIELD_SIZE",
      "outputs": [
        {
          "internalType": "uint256",
          "name": "",
          "type": "uint256"
        }
      ],
      "stateMutability": "view",
      "type": "function",
      "constant": true
    },
    {
      "inputs": [],
      "name": "ROOT_HISTORY_SIZE",
      "outputs": [
        {
          "internalType": "uint32",
          "name": "",
          "type": "uint32"
        }
      ],
      "stateMutability": "view",
      "type": "function",
      "constant": true
    },
    {
      "inputs": [],
      "name": "ZERO_VALUE",
      "outputs": [
        {
          "internalType": "uint256",
          "name": "",
          "type": "uint256"
        }
      ],
      "stateMutability": "view",
      "type": "function",
      "constant": true
    },
    {
      "inputs": [
        {
          "internalType": "bytes32",
          "name": "_commitment",
          "type": "bytes32"
        }
      ],
      "name": "commitmentExists",
      "outputs": [
        {
          "internalType": "bool",
          "name": "",
          "type": "bool"
        }
      ],
      "stateMutability": "view",
      "type": "function",
      "constant": true
    },
    {
      "inputs": [
        {
          "internalType": "bytes32",
          "name": "",
          "type": "bytes32"
        }
      ],
      "name": "commitmentLog",
      "outputs": [
        {
          "internalType": "uint256",
          "name": "amount",
          "type": "uint256"
        },
        {
          "internalType": "bool",
          "name": "isProven",
          "type": "bool"
        }
      ],
      "stateMutability": "view",
      "type": "function",
      "constant": true
    },
    {
      "inputs": [],
      "name": "commitmentVerifier",
      "outputs": [
        {
          "internalType": "contract ICommitmentVerifier",
          "name": "",
          "type": "address"
        }
      ],
      "stateMutability": "view",
      "type": "function",
      "constant": true
    },
    {
      "inputs": [],
      "name": "currentRootIndex",
      "outputs": [
        {
          "internalType": "uint32",
          "name": "",
          "type": "uint32"
        }
      ],
      "stateMutability": "view",
      "type": "function",
      "constant": true
    },
    {
      "inputs": [
        {
          "internalType": "uint256",
          "name": "",
          "type": "uint256"
        }
      ],
      "name": "filledSubtrees",
      "outputs": [
        {
          "internalType": "bytes32",
          "name": "",
          "type": "bytes32"
        }
      ],
      "stateMutability": "view",
      "type": "function",
      "constant": true
    },
    {
      "inputs": [],
      "name": "getLastRoot",
      "outputs": [
        {
          "internalType": "bytes32",
          "name": "",
          "type": "bytes32"
        }
      ],
      "stateMutability": "view",
      "type": "function",
      "constant": true
    },
    {
      "inputs": [
        {
          "internalType": "contract IHasher",
          "name": "_hasher",
          "type": "address"
        },
        {
          "internalType": "bytes32",
          "name": "_left",
          "type": "bytes32"
        },
        {
          "internalType": "bytes32",
          "name": "_right",
          "type": "bytes32"
        }
      ],
      "name": "hashLeftRight",
      "outputs": [
        {
          "internalType": "bytes32",
          "name": "",
          "type": "bytes32"
        }
      ],
      "stateMutability": "pure",
      "type": "function",
      "constant": true
    },
    {
      "inputs": [],
      "name": "hasher",
      "outputs": [
        {
          "internalType": "contract IHasher",
          "name": "",
          "type": "address"
        }
      ],
      "stateMutability": "view",
      "type": "function",
      "constant": true
    },
    {
      "inputs": [
        {
          "internalType": "bytes32",
          "name": "_root",
          "type": "bytes32"
        }
      ],
      "name": "isKnownRoot",
      "outputs": [
        {
          "internalType": "bool",
          "name": "",
          "type": "bool"
        }
      ],
      "stateMutability": "view",
      "type": "function",
      "constant": true
    },
    {
      "inputs": [
        {
          "internalType": "bytes32",
          "name": "_nullifierHash",
          "type": "bytes32"
        }
      ],
      "name": "isSpent",
      "outputs": [
        {
          "internalType": "bool",
          "name": "",
          "type": "bool"
        }
      ],
      "stateMutability": "view",
      "type": "function",
      "constant": true
    },
    {
      "inputs": [],
      "name": "levels",
      "outputs": [
        {
          "internalType": "uint32",
          "name": "",
          "type": "uint32"
        }
      ],
      "stateMutability": "view",
      "type": "function",
      "constant": true
    },
    {
      "inputs": [
        {
          "internalType": "uint256",
          "name": "left",
          "type": "uint256"
        },
        {
          "internalType": "uint256",
          "name": "right",
          "type": "uint256"
        }
      ],
      "name": "mimcHash",
      "outputs": [
        {
          "internalType": "bytes32",
          "name": "",
          "type": "bytes32"
        }
      ],
      "stateMutability": "view",
      "type": "function",
      "constant": true
    },
    {
      "inputs": [],
      "name": "nextIndex",
      "outputs": [
        {
          "internalType": "uint32",
          "name": "",
          "type": "uint32"
        }
      ],
      "stateMutability": "view",
      "type": "function",
      "constant": true
    },
    {
      "inputs": [
        {
          "internalType": "bytes32",
          "name": "",
          "type": "bytes32"
        }
      ],
      "name": "nullifierHashes",
      "outputs": [
        {
          "internalType": "bool",
          "name": "",
          "type": "bool"
        }
      ],
      "stateMutability": "view",
      "type": "function",
      "constant": true
    },
    {
      "inputs": [],
      "name": "owner",
      "outputs": [
        {
          "internalType": "address",
          "name": "",
          "type": "address"
        }
      ],
      "stateMutability": "view",
      "type": "function",
      "constant": true
    },
    {
      "inputs": [
        {
          "internalType": "uint256[8]",
          "name": "_proofData",
          "type": "uint256[8]"
        },
        {
          "internalType": "uint256[2]",
          "name": "_publicInputs",
          "type": "uint256[2]"
        }
      ],
      "name": "proveCommitment",
      "outputs": [],
      "stateMutability": "nonpayable",
      "type": "function"
    },
    {
      "inputs": [
        {
          "internalType": "bytes32",
          "name": "_commitment",
          "type": "bytes32"
        },
        {
          "internalType": "uint256",
          "name": "_amount",
          "type": "uint256"
        }
      ],
      "name": "registerCommitment",
      "outputs": [],
      "stateMutability": "nonpayable",
      "type": "function"
    },
    {
      "inputs": [],
      "name": "renounceOwnership",
      "outputs": [],
      "stateMutability": "nonpayable",
      "type": "function"
    },
    {
      "inputs": [
        {
          "internalType": "uint256",
          "name": "",
          "type": "uint256"
        }
      ],
      "name": "roots",
      "outputs": [
        {
          "internalType": "bytes32",
          "name": "",
          "type": "bytes32"
        }
      ],
      "stateMutability": "view",
      "type": "function",
      "constant": true
    },
    {
      "inputs": [
        {
          "internalType": "address",
          "name": "",
          "type": "address"
        }
      ],
      "name": "sellerBalance",
      "outputs": [
        {
          "internalType": "uint256",
          "name": "",
          "type": "uint256"
        }
      ],
      "stateMutability": "view",
      "type": "function",
      "constant": true
    },
    {
      "inputs": [
        {
          "internalType": "address",
          "name": "",
          "type": "address"
        }
      ],
      "name": "sellersPaypalAccount",
      "outputs": [
        {
          "internalType": "string",
          "name": "",
          "type": "string"
        }
      ],
      "stateMutability": "view",
      "type": "function",
      "constant": true
    },
    {
      "inputs": [
        {
          "internalType": "address",
          "name": "newOwner",
          "type": "address"
        }
      ],
      "name": "transferOwnership",
      "outputs": [],
      "stateMutability": "nonpayable",
      "type": "function"
    },
    {
      "inputs": [],
      "name": "usdcToken",
      "outputs": [
        {
          "internalType": "contract IERC20",
          "name": "",
          "type": "address"
        }
      ],
      "stateMutability": "view",
      "type": "function",
      "constant": true
    },
    {
      "inputs": [
        {
          "internalType": "uint256[8]",
          "name": "_proofData",
          "type": "uint256[8]"
        },
        {
          "internalType": "uint256[6]",
          "name": "_publicInputs",
          "type": "uint256[6]"
        }
      ],
      "name": "withdraw",
      "outputs": [],
      "stateMutability": "payable",
      "type": "function",
      "payable": true
    },
    {
      "inputs": [],
      "name": "withdrawalVerifier",
      "outputs": [
        {
          "internalType": "contract IWithdrawalVerifier",
          "name": "",
          "type": "address"
        }
      ],
      "stateMutability": "view",
      "type": "function",
      "constant": true
    },
    {
      "inputs": [
        {
          "internalType": "uint256",
          "name": "i",
          "type": "uint256"
        }
      ],
      "name": "zeros",
      "outputs": [
        {
          "internalType": "bytes32",
          "name": "",
          "type": "bytes32"
        }
      ],
      "stateMutability": "pure",
      "type": "function",
      "constant": true
    },
    {
      "inputs": [
        {
          "internalType": "string",
          "name": "_paypalEmailAddress",
          "type": "string"
        }
      ],
      "name": "configSeller",
      "outputs": [],
      "stateMutability": "nonpayable",
      "type": "function"
    },
    {
      "inputs": [],
      "name": "getUSDCTokenAddress",
      "outputs": [
        {
          "internalType": "address",
          "name": "",
          "type": "address"
        }
      ],
      "stateMutability": "view",
      "type": "function",
      "constant": true
    },
    {
      "inputs": [
        {
          "internalType": "uint256",
          "name": "_amount",
          "type": "uint256"
        }
      ],
      "name": "sellerDeposit",
      "outputs": [],
      "stateMutability": "nonpayable",
      "type": "function"
    },
    {
      "inputs": [],
      "name": "getSellerBalance",
      "outputs": [
        {
          "internalType": "uint256",
          "name": "",
          "type": "uint256"
        }
      ],
      "stateMutability": "view",
      "type": "function",
      "constant": true
    }
  ],
  "bytecode": "0x60e06040526000600360006101000a81548163ffffffff021916908363ffffffff1602179055506000600360046101000a81548163ffffffff021916908363ffffffff1602179055503480156200005557600080fd5b5060405162004f4c38038062004f4c83398181016040528101906200007b9190620008e9565b84848484808260008263ffffffff1611620000cd576040517f08c379a0000000000000000000000000000000000000000000000000000000008152600401620000c49062000a79565b60405180910390fd5b60208263ffffffff161062000119576040517f08c379a0000000000000000000000000000000000000000000000000000000008152600401620001109062000a57565b60405180910390fd5b816000806101000a81548163ffffffff021916908363ffffffff1602179055508073ffffffffffffffffffffffffffffffffffffffff1660808173ffffffffffffffffffffffffffffffffffffffff1660601b8152505060005b8263ffffffff168163ffffffff161015620001d2576200019f8163ffffffff16620002f760201b60201c565b600160008363ffffffff168152602001908152602001600020819055508080620001c99062000b89565b91505062000173565b50620001f8600183620001e6919062000ace565b63ffffffff16620002f760201b60201c565b600260008081526020019081526020016000208190555050506001600481905550620002396200022d620007a860201b60201c565b620007b060201b60201c565b8373ffffffffffffffffffffffffffffffffffffffff1660a08173ffffffffffffffffffffffffffffffffffffffff1660601b815250508273ffffffffffffffffffffffffffffffffffffffff1660c08173ffffffffffffffffffffffffffffffffffffffff1660601b815250505050505080600960006101000a81548173ffffffffffffffffffffffffffffffffffffffff021916908373ffffffffffffffffffffffffffffffffffffffff160217905550505050505062000c6c565b6000808214156200032e577f01f7c0801c91910ee966819dcbce0c940c0618cd33b2dea878b1e80275d8b94a60001b9050620007a3565b600182141562000364577f24816049a618fb575d582e49f278b6d6ed8df070dd4c6f42b5a2591bf258a5c760001b9050620007a3565b60028214156200039a577f0aa6ec0a6dbb444786866edc923652ed38fd4c331460f9cc17664dfb08a60c4160001b9050620007a3565b6003821415620003d0577f21578f17ca98798034d7f43200df613efbbe03b2e73a71f1bbfe27719d63ec6360001b9050620007a3565b600482141562000406577f1ac20c1e1bc1ecb8fe2a8c35811b34129efd72ef5c28ec52a73feeb11d5eeb2360001b9050620007a3565b60058214156200043c577f2680ec4ecaeebf96035b6ce23cdb5fc0367199ebb14f8b10109c87f3a8e9d7cf60001b9050620007a3565b600682141562000472577f0fcde95bf0d8f94ba1d4d717cbfa919332d9021cf4d7671a3922ee8040c27c4a60001b9050620007a3565b6007821415620004a8577f14cf909d59ba36343fd30566ef5b4056991288c120b14bd37e816813fdc0992a60001b9050620007a3565b6008821415620004de577f076bfc8a3e7b37e24befe23b0f698d07027f467d649ba5dc81216cd555ca4e2760001b9050620007a3565b600982141562000514577f0f57eb010e999daeebb197d21bcf54cbf5687422b044d58ba73189b82cf6134660001b9050620007a3565b600a8214156200054a577f285daa59cd5edaf5aad2ad16c350c779026c3018ed4245b9294b7b4085f9d9a260001b9050620007a3565b600b82141562000580577f2fe3af955ad2b062d63538714fca18418c39b7c5a748c103d00b519c5be6f85360001b9050620007a3565b600c821415620005b6577f2cb004612cebb6be147a95f69014ba4aea41c32dc771851f696e30a166367c6960001b9050620007a3565b600d821415620005ec577f16b679b03ed416ac3bf10078162542fa646fec43486e9c731deccf3e58492bfb60001b9050620007a3565b600e82141562000622577f0251aabe71c1e8989634b906c9a2f85a8025b4da4aa22f414a56051327c4d0e260001b9050620007a3565b600f82141562000658577f18178e3528883bb3587730a962e93f91df48fdc0752cfe562d7f51a3bc82886460001b9050620007a3565b60108214156200068e577f0fc36a09626e32928aee5780008d1aff581c8052566b7e5abed902f95cbe0f4060001b9050620007a3565b6011821415620006c4577f0ca4b5f7171b55787f86e054df192604506aee630f389adb4d075ed8104c70df60001b9050620007a3565b6012821415620006fa577f27c144cc7447fd24714893307f9f30debc0481d61c175e3179c2045e9159a48360001b9050620007a3565b601382141562000730577f05fcb5998a7d9ad77b15d510c5d17008582ea07273a8c974d1544602a619ff8b60001b9050620007a3565b601482141562000766577f23f27b4fa98be0dc2584d0f2b0cb352c4756880958026505da65b79bcd14d1b560001b9050620007a3565b6040517f08c379a00000000000000000000000000000000000000000000000000000000081526004016200079a9062000a9b565b60405180910390fd5b919050565b600033905090565b6000600560009054906101000a900473ffffffffffffffffffffffffffffffffffffffff16905081600560006101000a81548173ffffffffffffffffffffffffffffffffffffffff021916908373ffffffffffffffffffffffffffffffffffffffff1602179055508173ffffffffffffffffffffffffffffffffffffffff168173ffffffffffffffffffffffffffffffffffffffff167f8be0079c531659141344cd1fd0a4f28419497f9722a3daafe3b4186f6b6457e060405160405180910390a35050565b600081519050620008878162000bea565b92915050565b6000815190506200089e8162000c04565b92915050565b600081519050620008b58162000c1e565b92915050565b600081519050620008cc8162000c38565b92915050565b600081519050620008e38162000c52565b92915050565b600080600080600060a086880312156200090257600080fd5b600062000912888289016200088d565b95505060206200092588828901620008bb565b94505060406200093888828901620008a4565b93505060606200094b88828901620008d2565b92505060806200095e8882890162000876565b9150509295509295909350565b60006200097a601e8362000abd565b91507f5f6c6576656c732073686f756c64206265206c657373207468616e20333200006000830152602082019050919050565b6000620009bc60238362000abd565b91507f5f6c6576656c732073686f756c642062652067726561746572207468616e207a60008301527f65726f00000000000000000000000000000000000000000000000000000000006020830152604082019050919050565b600062000a2460138362000abd565b91507f496e646578206f7574206f6620626f756e6473000000000000000000000000006000830152602082019050919050565b6000602082019050818103600083015262000a72816200096b565b9050919050565b6000602082019050818103600083015262000a9481620009ad565b9050919050565b6000602082019050818103600083015262000ab68162000a15565b9050919050565b600082825260208201905092915050565b600062000adb8262000b79565b915062000ae88362000b79565b92508282101562000afe5762000afd62000bbb565b5b828203905092915050565b600062000b168262000b59565b9050919050565b600062000b2a8262000b09565b9050919050565b600062000b3e8262000b09565b9050919050565b600062000b528262000b09565b9050919050565b600073ffffffffffffffffffffffffffffffffffffffff82169050919050565b600063ffffffff82169050919050565b600062000b968262000b79565b915063ffffffff82141562000bb05762000baf62000bbb565b5b600182019050919050565b7f4e487b7100000000000000000000000000000000000000000000000000000000600052601160045260246000fd5b62000bf58162000b09565b811462000c0157600080fd5b50565b62000c0f8162000b1d565b811462000c1b57600080fd5b50565b62000c298162000b31565b811462000c3557600080fd5b50565b62000c438162000b45565b811462000c4f57600080fd5b50565b62000c5d8162000b79565b811462000c6957600080fd5b50565b60805160601c60a05160601c60c05160601c61428b62000cc160003960008181610ab50152610cb901526000818161186f0152611dc20152600081816109f8015281816123df01526129e4015261428b6000f3fe6080604052600436106101ee5760003560e01c80638da5cb5b1161010d578063cd87a3b4116100a0578063ec7329591161006f578063ec73295914610743578063ed33639f1461076e578063f178e47c14610799578063f2fde38b146107d6578063fc7e9c6f146107ff576101ee565b8063cd87a3b414610675578063dcb4c60a146106a0578063e5285dcc146106c9578063e829558814610706576101ee565b80639ce0fc72116100dc5780639ce0fc72146105b9578063ba70f757146105e2578063c2b40ae41461060d578063c6e892581461064a576101ee565b80638da5cb5b146104fd5780638ea3099e146105285780638f2e06651461056557806390eeb02b1461058e576101ee565b806358a70cb911610185578063715018a611610154578063715018a614610440578063787d30d0146104575780637a9dae961461049557806386307865146104c0576101ee565b806358a70cb91461036d5780636621553b146103aa57806367367e2b146103e75780636d9833e314610403576101ee565b80632d38a38a116101c15780632d38a38a146102af57806337f9fe26146102ec578063414a37ba146103175780634ecf518b14610342576101ee565b80630c8a95b2146101f35780630eb479221461021e57806311eac8551461024757806317cc915c14610272575b600080fd5b3480156101ff57600080fd5b5061020861082a565b60405161021591906136ad565b60405180910390f35b34801561022a57600080fd5b5061024560048036038101906102409190612e8d565b610854565b005b34801561025357600080fd5b5061025c6109ad565b6040516102699190613838565b60405180910390f35b34801561027e57600080fd5b5061029960048036038101906102949190612d98565b6109d3565b6040516102a6919061378d565b60405180910390f35b3480156102bb57600080fd5b506102d660048036038101906102d19190612eb6565b6109f3565b6040516102e391906137a8565b60405180910390f35b3480156102f857600080fd5b50610301610ab3565b60405161030e919061386e565b60405180910390f35b34801561032357600080fd5b5061032c610ad7565b6040516103399190613aab565b60405180910390f35b34801561034e57600080fd5b50610357610afb565b6040516103649190613b6b565b60405180910390f35b34801561037957600080fd5b50610394600480360381019061038f9190612cca565b610b0f565b6040516103a19190613889565b60405180910390f35b3480156103b657600080fd5b506103d160048036038101906103cc9190612cca565b610baf565b6040516103de9190613aab565b60405180910390f35b61040160048036038101906103fc9190612d31565b610bc7565b005b34801561040f57600080fd5b5061042a60048036038101906104259190612d98565b611303565b604051610437919061378d565b60405180910390f35b34801561044c57600080fd5b506104556113a4565b005b34801561046357600080fd5b5061047e60048036038101906104799190612d98565b61142c565b60405161048c929190613ac6565b60405180910390f35b3480156104a157600080fd5b506104aa61145d565b6040516104b79190613aab565b60405180910390f35b3480156104cc57600080fd5b506104e760048036038101906104e29190612d98565b6114a4565b6040516104f4919061378d565b60405180910390f35b34801561050957600080fd5b506105126114c6565b60405161051f91906136ad565b60405180910390f35b34801561053457600080fd5b5061054f600480360381019061054a9190612dfd565b6114f0565b60405161055c91906137a8565b60405180910390f35b34801561057157600080fd5b5061058c60048036038101906105879190612cf3565b611662565b005b34801561059a57600080fd5b506105a3611d08565b6040516105b09190613b6b565b60405180910390f35b3480156105c557600080fd5b506105e060048036038101906105db9190612e4c565b611d1e565b005b3480156105ee57600080fd5b506105f7611d75565b60405161060491906137a8565b60405180910390f35b34801561061957600080fd5b50610634600480360381019061062f9190612e8d565b611da8565b60405161064191906137a8565b60405180910390f35b34801561065657600080fd5b5061065f611dc0565b60405161066c919061381d565b60405180910390f35b34801561068157600080fd5b5061068a611de4565b6040516106979190613b6b565b60405180910390f35b3480156106ac57600080fd5b506106c760048036038101906106c29190612dc1565b611de9565b005b3480156106d557600080fd5b506106f060048036038101906106eb9190612d98565b611f0a565b6040516106fd919061378d565b60405180910390f35b34801561071257600080fd5b5061072d60048036038101906107289190612e8d565b611f34565b60405161073a91906137a8565b60405180910390f35b34801561074f57600080fd5b506107586123b9565b6040516107659190613aab565b60405180910390f35b34801561077a57600080fd5b506107836123dd565b6040516107909190613853565b60405180910390f35b3480156107a557600080fd5b506107c060048036038101906107bb9190612e8d565b612401565b6040516107cd91906137a8565b60405180910390f35b3480156107e257600080fd5b506107fd60048036038101906107f89190612cca565b612419565b005b34801561080b57600080fd5b50610814612511565b6040516108219190613b6b565b60405180910390f35b6000600960009054906101000a900473ffffffffffffffffffffffffffffffffffffffff16905090565b600960009054906101000a900473ffffffffffffffffffffffffffffffffffffffff1673ffffffffffffffffffffffffffffffffffffffff166323b872dd3330846040518463ffffffff1660e01b81526004016108b3939291906136c8565b602060405180830381600087803b1580156108cd57600080fd5b505af11580156108e1573d6000803e3d6000fd5b505050506040513d601f19601f820116820180604052508101906109059190612d6f565b5080600a60003373ffffffffffffffffffffffffffffffffffffffff1673ffffffffffffffffffffffffffffffffffffffff16815260200190815260200160002060008282546109559190613cac565b925050819055503373ffffffffffffffffffffffffffffffffffffffff167f327ca9276da9073b583440165cb887319e7aeaf4003f14e92c1bbeee913e9b9c826040516109a29190613aab565b60405180910390a250565b600960009054906101000a900473ffffffffffffffffffffffffffffffffffffffff1681565b60076020528060005260406000206000915054906101000a900460ff1681565b6000807f000000000000000000000000000000000000000000000000000000000000000073ffffffffffffffffffffffffffffffffffffffff16633f1a1187858560006040518463ffffffff1660e01b8152600401610a5493929190613b34565b604080518083038186803b158015610a6b57600080fd5b505afa158015610a7f573d6000803e3d6000fd5b505050506040513d601f19601f82011682018060405250810190610aa39190612ef2565b5090508060001b91505092915050565b7f000000000000000000000000000000000000000000000000000000000000000081565b7f30644e72e131a029b85045b68181585d2833e84879b9709143e1f593f000000181565b60008054906101000a900463ffffffff1681565b60086020528060005260406000206000915090508054610b2e90614078565b80601f0160208091040260200160405190810160405280929190818152602001828054610b5a90614078565b8015610ba75780601f10610b7c57610100808354040283529160200191610ba7565b820191906000526020600020905b815481529060010190602001808311610b8a57829003601f168201915b505050505081565b600a6020528060005260406000206000915090505481565b60026004541415610c0d576040517f08c379a0000000000000000000000000000000000000000000000000000000008152600401610c0490613a8b565b60405180910390fd5b60026004819055506007600082600160068110610c53577f4e487b7100000000000000000000000000000000000000000000000000000000600052603260045260246000fd5b602002013560001b815260200190815260200160002060009054906101000a900460ff1615610cb7576040517f08c379a0000000000000000000000000000000000000000000000000000000008152600401610cae9061394b565b60405180910390fd5b7f000000000000000000000000000000000000000000000000000000000000000073ffffffffffffffffffffffffffffffffffffffff1663f398789b604051806040016040528085600060088110610d38577f4e487b7100000000000000000000000000000000000000000000000000000000600052603260045260246000fd5b6020020135815260200185600160088110610d7c577f4e487b7100000000000000000000000000000000000000000000000000000000600052603260045260246000fd5b60200201358152506040518060400160405280604051806040016040528088600260088110610dd4577f4e487b7100000000000000000000000000000000000000000000000000000000600052603260045260246000fd5b6020020135815260200188600360088110610e18577f4e487b7100000000000000000000000000000000000000000000000000000000600052603260045260246000fd5b60200201358152508152602001604051806040016040528088600460088110610e6a577f4e487b7100000000000000000000000000000000000000000000000000000000600052603260045260246000fd5b6020020135815260200188600560088110610eae577f4e487b7100000000000000000000000000000000000000000000000000000000600052603260045260246000fd5b6020020135815250815250604051806040016040528087600660088110610efe577f4e487b7100000000000000000000000000000000000000000000000000000000600052603260045260246000fd5b6020020135815260200187600760088110610f42577f4e487b7100000000000000000000000000000000000000000000000000000000600052603260045260246000fd5b6020020135815250856040518563ffffffff1660e01b8152600401610f6a9493929190613746565b60206040518083038186803b158015610f8257600080fd5b505afa158015610f96573d6000803e3d6000fd5b505050506040513d601f19601f82011682018060405250810190610fba9190612d6f565b610ff9576040517f08c379a0000000000000000000000000000000000000000000000000000000008152600401610ff09061398b565b60405180910390fd5b60016007600083600160068110611039577f4e487b7100000000000000000000000000000000000000000000000000000000600052603260045260246000fd5b602002013560001b815260200190815260200160002060006101000a81548160ff02191690831515021790555061116a816002600681106110a3577f4e487b7100000000000000000000000000000000000000000000000000000000600052603260045260246000fd5b6020020135826004600681106110e2577f4e487b7100000000000000000000000000000000000000000000000000000000600052603260045260246000fd5b602002013583600360068110611121577f4e487b7100000000000000000000000000000000000000000000000000000000600052603260045260246000fd5b602002013584600560068110611160577f4e487b7100000000000000000000000000000000000000000000000000000000600052603260045260246000fd5b6020020135612527565b806002600681106111a4577f4e487b7100000000000000000000000000000000000000000000000000000000600052603260045260246000fd5b602002013573ffffffffffffffffffffffffffffffffffffffff167fd32e00d318d852975e4e7dfe93b3a71394ae5ebbe7c62c7f12d188b44c6adf4e8260036006811061121a577f4e487b7100000000000000000000000000000000000000000000000000000000600052603260045260246000fd5b602002013583600160068110611259577f4e487b7100000000000000000000000000000000000000000000000000000000600052603260045260246000fd5b602002013560001b8460046006811061129b577f4e487b7100000000000000000000000000000000000000000000000000000000600052603260045260246000fd5b6020020135856005600681106112da577f4e487b7100000000000000000000000000000000000000000000000000000000600052603260045260246000fd5b60200201356040516112ef9493929190613aef565b60405180910390a260016004819055505050565b60008060001b821415611319576000905061139f565b6000600360009054906101000a900463ffffffff16905060008190505b600260008263ffffffff168152602001908152602001600020548414156113625760019250505061139f565b60008163ffffffff16141561137657601e90505b80806113819061404e565b9150508163ffffffff168163ffffffff161415611336576000925050505b919050565b6113ac61269b565b73ffffffffffffffffffffffffffffffffffffffff166113ca6114c6565b73ffffffffffffffffffffffffffffffffffffffff1614611420576040517f08c379a0000000000000000000000000000000000000000000000000000000008152600401611417906139ab565b60405180910390fd5b61142a60006126a3565b565b60066020528060005260406000206000915090508060000154908060010160009054906101000a900460ff16905082565b6000600a60003373ffffffffffffffffffffffffffffffffffffffff1673ffffffffffffffffffffffffffffffffffffffff16815260200190815260200160002054905090565b6000806006600084815260200190815260200160002060000154119050919050565b6000600560009054906101000a900473ffffffffffffffffffffffffffffffffffffffff16905090565b60007f30644e72e131a029b85045b68181585d2833e84879b9709143e1f593f00000018360001c10611557576040517f08c379a000000000000000000000000000000000000000000000000000000000815260040161154e9061390b565b60405180910390fd5b7f30644e72e131a029b85045b68181585d2833e84879b9709143e1f593f00000018260001c106115bc576040517f08c379a00000000000000000000000000000000000000000000000000000000081526004016115b39061396b565b60405180910390fd5b60008473ffffffffffffffffffffffffffffffffffffffff16633f1a11878560001c8560001c60006040518463ffffffff1660e01b815260040161160293929190613b34565b604080518083038186803b15801561161957600080fd5b505afa15801561162d573d6000803e3d6000fd5b505050506040513d601f19601f820116820180604052508101906116519190612ef2565b5090508060001b9150509392505050565b6116ac8160006002811061169f577f4e487b7100000000000000000000000000000000000000000000000000000000600052603260045260246000fd5b602002013560001b6114a4565b6116eb576040517f08c379a00000000000000000000000000000000000000000000000000000000081526004016116e29061392b565b60405180910390fd5b80600160028110611725577f4e487b7100000000000000000000000000000000000000000000000000000000600052603260045260246000fd5b60200201356006600083600060028110611768577f4e487b7100000000000000000000000000000000000000000000000000000000600052603260045260246000fd5b602002013560001b815260200190815260200160002060000154146117c2576040517f08c379a00000000000000000000000000000000000000000000000000000000081526004016117b990613a2b565b60405180910390fd5b600015156006600083600060028110611804577f4e487b7100000000000000000000000000000000000000000000000000000000600052603260045260246000fd5b602002013560001b815260200190815260200160002060010160009054906101000a900460ff1615151461186d576040517f08c379a0000000000000000000000000000000000000000000000000000000008152600401611864906138cb565b60405180910390fd5b7f000000000000000000000000000000000000000000000000000000000000000073ffffffffffffffffffffffffffffffffffffffff1663f5c9d69e6040518060400160405280856000600881106118ee577f4e487b7100000000000000000000000000000000000000000000000000000000600052603260045260246000fd5b6020020135815260200185600160088110611932577f4e487b7100000000000000000000000000000000000000000000000000000000600052603260045260246000fd5b6020020135815250604051806040016040528060405180604001604052808860026008811061198a577f4e487b7100000000000000000000000000000000000000000000000000000000600052603260045260246000fd5b60200201358152602001886003600881106119ce577f4e487b7100000000000000000000000000000000000000000000000000000000600052603260045260246000fd5b60200201358152508152602001604051806040016040528088600460088110611a20577f4e487b7100000000000000000000000000000000000000000000000000000000600052603260045260246000fd5b6020020135815260200188600560088110611a64577f4e487b7100000000000000000000000000000000000000000000000000000000600052603260045260246000fd5b6020020135815250815250604051806040016040528087600660088110611ab4577f4e487b7100000000000000000000000000000000000000000000000000000000600052603260045260246000fd5b6020020135815260200187600760088110611af8577f4e487b7100000000000000000000000000000000000000000000000000000000600052603260045260246000fd5b6020020135815250856040518563ffffffff1660e01b8152600401611b2094939291906136ff565b60206040518083038186803b158015611b3857600080fd5b505afa158015611b4c573d6000803e3d6000fd5b505050506040513d601f19601f82011682018060405250810190611b709190612d6f565b611baf576040517f08c379a0000000000000000000000000000000000000000000000000000000008152600401611ba6906139cb565b60405180910390fd5b60016006600083600060028110611bef577f4e487b7100000000000000000000000000000000000000000000000000000000600052603260045260246000fd5b602002013560001b815260200190815260200160002060010160006101000a81548160ff021916908315150217905550600080600080611c6f85600060028110611c62577f4e487b7100000000000000000000000000000000000000000000000000000000600052603260045260246000fd5b602002013560001b612769565b9350935093509350611c7f612ae5565b84600060028110611cb9577f4e487b7100000000000000000000000000000000000000000000000000000000600052603260045260246000fd5b602002013560001b7fa7140553099c9d3bb557e32392e58b108037a179e3ba217d3a4c69dad385035d8585858542604051611cf89594939291906137c3565b60405180910390a2505050505050565b600360009054906101000a900463ffffffff1681565b80600860003373ffffffffffffffffffffffffffffffffffffffff1673ffffffffffffffffffffffffffffffffffffffff1681526020019081526020016000209080519060200190611d71929190612ae7565b5050565b600060026000600360009054906101000a900463ffffffff1663ffffffff16815260200190815260200160002054905090565b60026020528060005260406000206000915090505481565b7f000000000000000000000000000000000000000000000000000000000000000081565b601e81565b611df161269b565b73ffffffffffffffffffffffffffffffffffffffff16611e0f6114c6565b73ffffffffffffffffffffffffffffffffffffffff1614611e65576040517f08c379a0000000000000000000000000000000000000000000000000000000008152600401611e5c906139ab565b60405180910390fd5b611e6e826114a4565b15611eae576040517f08c379a0000000000000000000000000000000000000000000000000000000008152600401611ea5906138eb565b60405180910390fd5b604051806040016040528082815260200160001515815250600660008481526020019081526020016000206000820151816000015560208201518160010160006101000a81548160ff0219169083151502179055509050505050565b60006007600083815260200190815260200160002060009054906101000a900460ff169050919050565b600080821415611f69577f01f7c0801c91910ee966819dcbce0c940c0618cd33b2dea878b1e80275d8b94a60001b90506123b4565b6001821415611f9d577f24816049a618fb575d582e49f278b6d6ed8df070dd4c6f42b5a2591bf258a5c760001b90506123b4565b6002821415611fd1577f0aa6ec0a6dbb444786866edc923652ed38fd4c331460f9cc17664dfb08a60c4160001b90506123b4565b6003821415612005577f21578f17ca98798034d7f43200df613efbbe03b2e73a71f1bbfe27719d63ec6360001b90506123b4565b6004821415612039577f1ac20c1e1bc1ecb8fe2a8c35811b34129efd72ef5c28ec52a73feeb11d5eeb2360001b90506123b4565b600582141561206d577f2680ec4ecaeebf96035b6ce23cdb5fc0367199ebb14f8b10109c87f3a8e9d7cf60001b90506123b4565b60068214156120a1577f0fcde95bf0d8f94ba1d4d717cbfa919332d9021cf4d7671a3922ee8040c27c4a60001b90506123b4565b60078214156120d5577f14cf909d59ba36343fd30566ef5b4056991288c120b14bd37e816813fdc0992a60001b90506123b4565b6008821415612109577f076bfc8a3e7b37e24befe23b0f698d07027f467d649ba5dc81216cd555ca4e2760001b90506123b4565b600982141561213d577f0f57eb010e999daeebb197d21bcf54cbf5687422b044d58ba73189b82cf6134660001b90506123b4565b600a821415612171577f285daa59cd5edaf5aad2ad16c350c779026c3018ed4245b9294b7b4085f9d9a260001b90506123b4565b600b8214156121a5577f2fe3af955ad2b062d63538714fca18418c39b7c5a748c103d00b519c5be6f85360001b90506123b4565b600c8214156121d9577f2cb004612cebb6be147a95f69014ba4aea41c32dc771851f696e30a166367c6960001b90506123b4565b600d82141561220d577f16b679b03ed416ac3bf10078162542fa646fec43486e9c731deccf3e58492bfb60001b90506123b4565b600e821415612241577f0251aabe71c1e8989634b906c9a2f85a8025b4da4aa22f414a56051327c4d0e260001b90506123b4565b600f821415612275577f18178e3528883bb3587730a962e93f91df48fdc0752cfe562d7f51a3bc82886460001b90506123b4565b60108214156122a9577f0fc36a09626e32928aee5780008d1aff581c8052566b7e5abed902f95cbe0f4060001b90506123b4565b60118214156122dd577f0ca4b5f7171b55787f86e054df192604506aee630f389adb4d075ed8104c70df60001b90506123b4565b6012821415612311577f27c144cc7447fd24714893307f9f30debc0481d61c175e3179c2045e9159a48360001b90506123b4565b6013821415612345577f05fcb5998a7d9ad77b15d510c5d17008582ea07273a8c974d1544602a619ff8b60001b90506123b4565b6014821415612379577f23f27b4fa98be0dc2584d0f2b0cb352c4756880958026505da65b79bcd14d1b560001b90506123b4565b6040517f08c379a00000000000000000000000000000000000000000000000000000000081526004016123ab90613a4b565b60405180910390fd5b919050565b7f01f7c0801c91910ee966819dcbce0c940c0618cd33b2dea878b1e80275d8b94a81565b7f000000000000000000000000000000000000000000000000000000000000000081565b60016020528060005260406000206000915090505481565b61242161269b565b73ffffffffffffffffffffffffffffffffffffffff1661243f6114c6565b73ffffffffffffffffffffffffffffffffffffffff1614612495576040517f08c379a000000000000000000000000000000000000000000000000000000000815260040161248c906139ab565b60405180910390fd5b600073ffffffffffffffffffffffffffffffffffffffff168173ffffffffffffffffffffffffffffffffffffffff161415612505576040517f08c379a00000000000000000000000000000000000000000000000000000000081526004016124fc906138ab565b60405180910390fd5b61250e816126a3565b50565b600360049054906101000a900463ffffffff1681565b60008473ffffffffffffffffffffffffffffffffffffffff16828461254c9190613ec2565b60405161255890613698565b60006040518083038185875af1925050503d8060008114612595576040519150601f19603f3d011682016040523d82523d6000602084013e61259a565b606091505b50509050806125de576040517f08c379a00000000000000000000000000000000000000000000000000000000081526004016125d5906139eb565b60405180910390fd5b6000821115612694578373ffffffffffffffffffffffffffffffffffffffff168260405161260b90613698565b60006040518083038185875af1925050503d8060008114612648576040519150601f19603f3d011682016040523d82523d6000602084013e61264d565b606091505b50508091505080612693576040517f08c379a000000000000000000000000000000000000000000000000000000000815260040161268a90613a0b565b60405180910390fd5b5b5050505050565b600033905090565b6000600560009054906101000a900473ffffffffffffffffffffffffffffffffffffffff16905081600560006101000a81548173ffffffffffffffffffffffffffffffffffffffff021916908373ffffffffffffffffffffffffffffffffffffffff1602179055508173ffffffffffffffffffffffffffffffffffffffff168173ffffffffffffffffffffffffffffffffffffffff167f8be0079c531659141344cd1fd0a4f28419497f9722a3daafe3b4186f6b6457e060405160405180910390a35050565b6000806060600080600360049054906101000a900463ffffffff16905060008054906101000a900463ffffffff1660026127a39190613dc0565b63ffffffff168163ffffffff1614156127f1576040517f08c379a00000000000000000000000000000000000000000000000000000000081526004016127e890613a6b565b60405180910390fd5b6000819050600087905060008060008060009054906101000a900463ffffffff1663ffffffff1667ffffffffffffffff811115612857577f4e487b7100000000000000000000000000000000000000000000000000000000600052604160045260246000fd5b6040519080825280602002602001820160405280156128855781602001602082028036833780820191505090505b5090506000805b60008054906101000a900463ffffffff1663ffffffff168163ffffffff161015612a2e5760006002886128bf91906140d7565b63ffffffff16141561295b578594506128dd8163ffffffff16611f34565b935085600160008363ffffffff1681526020019081526020016000208190555083838263ffffffff168151811061293d577f4e487b7100000000000000000000000000000000000000000000000000000000600052603260045260246000fd5b60200260200101818152505060018263ffffffff16901b91506129df565b600160008263ffffffff16815260200190815260200160002054945085935084838263ffffffff16815181106129ba577f4e487b7100000000000000000000000000000000000000000000000000000000600052603260045260246000fd5b6020026020010181815250506001808363ffffffff16901b6129dc9190613d02565b91505b612a0a7f000000000000000000000000000000000000000000000000000000000000000086866114f0565b9550600287612a199190613d3c565b96508080612a26906140aa565b91505061288c565b506000601e6001600360009054906101000a900463ffffffff16612a529190613d02565b612a5c91906140d7565b905080600360006101000a81548163ffffffff021916908363ffffffff16021790555085600260008363ffffffff16815260200190815260200160002081905550600188612aaa9190613d02565b600360046101000a81548163ffffffff021916908363ffffffff160217905550858884849b509b509b509b5050505050505050509193509193565b565b828054612af390614078565b90600052602060002090601f016020900481019282612b155760008555612b5c565b82601f10612b2e57805160ff1916838001178555612b5c565b82800160010185558215612b5c579182015b82811115612b5b578251825591602001919060010190612b40565b5b509050612b699190612b6d565b5090565b5b80821115612b86576000816000905550600101612b6e565b5090565b6000612b9d612b9884613bb7565b613b86565b905082815260208101848484011115612bb557600080fd5b612bc084828561400c565b509392505050565b600081359050612bd7816141e2565b92915050565b600081905082602060020282011115612bf557600080fd5b92915050565b600081905082602060060282011115612c1357600080fd5b92915050565b600081905082602060080282011115612c3157600080fd5b92915050565b600081519050612c46816141f9565b92915050565b600081359050612c5b81614210565b92915050565b600081359050612c7081614227565b92915050565b600082601f830112612c8757600080fd5b8135612c97848260208601612b8a565b91505092915050565b600081359050612caf8161423e565b92915050565b600081519050612cc48161423e565b92915050565b600060208284031215612cdc57600080fd5b6000612cea84828501612bc8565b91505092915050565b6000806101408385031215612d0757600080fd5b6000612d1585828601612c19565b925050610100612d2785828601612bdd565b9150509250929050565b6000806101c08385031215612d4557600080fd5b6000612d5385828601612c19565b925050610100612d6585828601612bfb565b9150509250929050565b600060208284031215612d8157600080fd5b6000612d8f84828501612c37565b91505092915050565b600060208284031215612daa57600080fd5b6000612db884828501612c4c565b91505092915050565b60008060408385031215612dd457600080fd5b6000612de285828601612c4c565b9250506020612df385828601612ca0565b9150509250929050565b600080600060608486031215612e1257600080fd5b6000612e2086828701612c61565b9350506020612e3186828701612c4c565b9250506040612e4286828701612c4c565b9150509250925092565b600060208284031215612e5e57600080fd5b600082013567ffffffffffffffff811115612e7857600080fd5b612e8484828501612c76565b91505092915050565b600060208284031215612e9f57600080fd5b6000612ead84828501612ca0565b91505092915050565b60008060408385031215612ec957600080fd5b6000612ed785828601612ca0565b9250506020612ee885828601612ca0565b9150509250929050565b60008060408385031215612f0557600080fd5b6000612f1385828601612cb5565b9250506020612f2485828601612cb5565b9150509250929050565b6000612f3a838361304a565b60408301905092915050565b6000612f528383613117565b60208301905092915050565b6000612f6a838361366b565b60208301905092915050565b612f7f81613ef6565b82525050565b612f8e81613c0b565b612f988184613c5e565b9250612fa382613be7565b8060005b83811015612fd4578151612fbb8782612f2e565b9650612fc683613c37565b925050600181019050612fa7565b505050505050565b6000612fe782613c16565b612ff18185613c69565b9350612ffc83613bf1565b8060005b8381101561302d5781516130148882612f46565b975061301f83613c44565b925050600181019050613000565b5085935050505092915050565b6130466040838361400c565b5050565b61305381613c21565b61305d8184613c7a565b925061306882613c01565b8060005b838110156130995781516130808782612f5e565b965061308b83613c51565b92505060018101905061306c565b505050505050565b6130aa81613c21565b6130b48184613c85565b92506130bf82613c01565b8060005b838110156130f05781516130d78782612f5e565b96506130e283613c51565b9250506001810190506130c3565b505050505050565b61310460c0838361400c565b5050565b61311181613f08565b82525050565b61312081613f14565b82525050565b61312f81613f14565b82525050565b61313e81613f6a565b82525050565b61314d81613f8e565b82525050565b61315c81613fb2565b82525050565b61316b81613fd6565b82525050565b61317a81613ffa565b82525050565b600061318b82613c2c565b6131958185613c9b565b93506131a581856020860161401b565b6131ae816141c4565b840191505092915050565b60006131c6602683613c9b565b91507f4f776e61626c653a206e6577206f776e657220697320746865207a65726f206160008301527f64647265737300000000000000000000000000000000000000000000000000006020830152604082019050919050565b600061322c602483613c9b565b91507f436f6d6d69746d656e742068617320616c7265616479206265656e207665726960008301527f66696564000000000000000000000000000000000000000000000000000000006020830152604082019050919050565b6000613292601d83613c9b565b91507f54686520636f6d6d69746d656e7420616c7265616479206578697374730000006000830152602082019050919050565b60006132d2602083613c9b565b91507f5f6c6566742073686f756c6420626520696e7369646520746865206669656c646000830152602082019050919050565b6000613312601383613c9b565b91507f4e6f20636f6d6d69746d656e7420666f756e64000000000000000000000000006000830152602082019050919050565b6000613352601f83613c9b565b91507f546865206e6f74652068617320616c7265616479206265656e207370656e74006000830152602082019050919050565b6000613392602183613c9b565b91507f5f72696768742073686f756c6420626520696e7369646520746865206669656c60008301527f64000000000000000000000000000000000000000000000000000000000000006020830152604082019050919050565b60006133f8601883613c9b565b91507f496e76616c6964207769746864726177616c2070726f6f6600000000000000006000830152602082019050919050565b6000613438602083613c9b565b91507f4f776e61626c653a2063616c6c6572206973206e6f7420746865206f776e65726000830152602082019050919050565b6000613478601883613c9b565b91507f496e76616c696420636f6d6d69746d656e742070726f6f6600000000000000006000830152602082019050919050565b60006134b8601b83613c9b565b91507f5061796d656e7420746f20726563697069656e74206661696c656400000000006000830152602082019050919050565b60006134f8601983613c9b565b91507f5061796d656e7420746f2072656c61796572206661696c6564000000000000006000830152602082019050919050565b6000613538600083613c90565b9150600082019050919050565b6000613552600f83613c9b565b91507f416d6f756e74206d69736d6174636800000000000000000000000000000000006000830152602082019050919050565b6000613592601383613c9b565b91507f496e646578206f7574206f6620626f756e6473000000000000000000000000006000830152602082019050919050565b60006135d2603083613c9b565b91507f4d65726b6c6520747265652069732066756c6c2e204e6f206d6f7265206c656160008301527f7665732063616e206265206164646564000000000000000000000000000000006020830152604082019050919050565b6000613638601f83613c9b565b91507f5265656e7472616e637947756172643a207265656e7472616e742063616c6c006000830152602082019050919050565b61367481613f50565b82525050565b61368381613f50565b82525050565b61369281613f5a565b82525050565b60006136a38261352b565b9150819050919050565b60006020820190506136c26000830184612f76565b92915050565b60006060820190506136dd6000830186612f76565b6136ea6020830185612f76565b6136f7604083018461367a565b949350505050565b60006101408201905061371560008301876130a1565b6137226040830186612f85565b61372f60c08301856130a1565b61373d61010083018461303a565b95945050505050565b60006101c08201905061375c60008301876130a1565b6137696040830186612f85565b61377660c08301856130a1565b6137846101008301846130f8565b95945050505050565b60006020820190506137a26000830184613108565b92915050565b60006020820190506137bd6000830184613126565b92915050565b600060a0820190506137d86000830188613126565b6137e56020830187613689565b81810360408301526137f78186612fdc565b90506138066060830185613689565b613813608083018461367a565b9695505050505050565b60006020820190506138326000830184613135565b92915050565b600060208201905061384d6000830184613144565b92915050565b60006020820190506138686000830184613153565b92915050565b60006020820190506138836000830184613162565b92915050565b600060208201905081810360008301526138a38184613180565b905092915050565b600060208201905081810360008301526138c4816131b9565b9050919050565b600060208201905081810360008301526138e48161321f565b9050919050565b6000602082019050818103600083015261390481613285565b9050919050565b60006020820190508181036000830152613924816132c5565b9050919050565b6000602082019050818103600083015261394481613305565b9050919050565b6000602082019050818103600083015261396481613345565b9050919050565b6000602082019050818103600083015261398481613385565b9050919050565b600060208201905081810360008301526139a4816133eb565b9050919050565b600060208201905081810360008301526139c48161342b565b9050919050565b600060208201905081810360008301526139e48161346b565b9050919050565b60006020820190508181036000830152613a04816134ab565b9050919050565b60006020820190508181036000830152613a24816134eb565b9050919050565b60006020820190508181036000830152613a4481613545565b9050919050565b60006020820190508181036000830152613a6481613585565b9050919050565b60006020820190508181036000830152613a84816135c5565b9050919050565b60006020820190508181036000830152613aa48161362b565b9050919050565b6000602082019050613ac0600083018461367a565b92915050565b6000604082019050613adb600083018561367a565b613ae86020830184613108565b9392505050565b6000608082019050613b04600083018761367a565b613b116020830186613126565b613b1e6040830185612f76565b613b2b606083018461367a565b95945050505050565b6000606082019050613b49600083018661367a565b613b56602083018561367a565b613b636040830184613171565b949350505050565b6000602082019050613b806000830184613689565b92915050565b6000604051905081810181811067ffffffffffffffff82111715613bad57613bac614195565b5b8060405250919050565b600067ffffffffffffffff821115613bd257613bd1614195565b5b601f19601f8301169050602081019050919050565b6000819050919050565b6000819050602082019050919050565b6000819050919050565b600060029050919050565b600081519050919050565b600060029050919050565b600081519050919050565b6000602082019050919050565b6000602082019050919050565b6000602082019050919050565b600081905092915050565b600082825260208201905092915050565b600081905092915050565b600081905092915050565b600081905092915050565b600082825260208201905092915050565b6000613cb782613f50565b9150613cc283613f50565b9250827fffffffffffffffffffffffffffffffffffffffffffffffffffffffffffffffff03821115613cf757613cf6614108565b5b828201905092915050565b6000613d0d82613f5a565b9150613d1883613f5a565b92508263ffffffff03821115613d3157613d30614108565b5b828201905092915050565b6000613d4782613f5a565b9150613d5283613f5a565b925082613d6257613d61614137565b5b828204905092915050565b6000808291508390505b6001851115613db757808604811115613d9357613d92614108565b5b6001851615613da25780820291505b8081029050613db0856141d5565b9450613d77565b94509492505050565b6000613dcb82613f5a565b9150613dd683613f5a565b9250613de763ffffffff8484613def565b905092915050565b600082613dff5760019050613ebb565b81613e0d5760009050613ebb565b8160018114613e235760028114613e2d57613e5c565b6001915050613ebb565b60ff841115613e3f57613e3e614108565b5b8360020a915084821115613e5657613e55614108565b5b50613ebb565b5060208310610133831016604e8410600b8410161715613e915782820a905083811115613e8c57613e8b614108565b5b613ebb565b613e9e8484846001613d6d565b92509050818404811115613eb557613eb4614108565b5b81810290505b9392505050565b6000613ecd82613f50565b9150613ed883613f50565b925082821015613eeb57613eea614108565b5b828203905092915050565b6000613f0182613f30565b9050919050565b60008115159050919050565b6000819050919050565b6000613f2982613ef6565b9050919050565b600073ffffffffffffffffffffffffffffffffffffffff82169050919050565b6000819050919050565b600063ffffffff82169050919050565b6000613f7582613f7c565b9050919050565b6000613f8782613f30565b9050919050565b6000613f9982613fa0565b9050919050565b6000613fab82613f30565b9050919050565b6000613fbd82613fc4565b9050919050565b6000613fcf82613f30565b9050919050565b6000613fe182613fe8565b9050919050565b6000613ff382613f30565b9050919050565b600061400582613f50565b9050919050565b82818337600083830152505050565b60005b8381101561403957808201518184015260208101905061401e565b83811115614048576000848401525b50505050565b600061405982613f5a565b9150600082141561406d5761406c614108565b5b600182039050919050565b6000600282049050600182168061409057607f821691505b602082108114156140a4576140a3614166565b5b50919050565b60006140b582613f5a565b915063ffffffff8214156140cc576140cb614108565b5b600182019050919050565b60006140e282613f5a565b91506140ed83613f5a565b9250826140fd576140fc614137565b5b828206905092915050565b7f4e487b7100000000000000000000000000000000000000000000000000000000600052601160045260246000fd5b7f4e487b7100000000000000000000000000000000000000000000000000000000600052601260045260246000fd5b7f4e487b7100000000000000000000000000000000000000000000000000000000600052602260045260246000fd5b7f4e487b7100000000000000000000000000000000000000000000000000000000600052604160045260246000fd5b6000601f19601f8301169050919050565b60008160011c9050919050565b6141eb81613ef6565b81146141f657600080fd5b50565b61420281613f08565b811461420d57600080fd5b50565b61421981613f14565b811461422457600080fd5b50565b61423081613f1e565b811461423b57600080fd5b50565b61424781613f50565b811461425257600080fd5b5056fea264697066735822122087ea5b1334ffd6c233815b575d4f5618f4ac00caa00f66912c5a44a6d77cc6b964736f6c63430008000033",
  "immutableReferences": {
    "228": [
      {
        "length": 32,
        "start": 6255
      },
      {
        "length": 32,
        "start": 7618
      }
    ],
    "231": [
      {
        "length": 32,
        "start": 2741
      },
      {
        "length": 32,
        "start": 3257
      }
    ],
    "688": [
      {
        "length": 32,
        "start": 2552
      },
      {
        "length": 32,
        "start": 9183
      },
      {
        "length": 32,
        "start": 10724
      }
    ]
  },
  "source": "// SPDX-License-Identifier: MIT\npragma solidity ^0.8.0;\n\nimport \"./AssetPool.sol\";\n\ninterface IERC20 {\n    function totalSupply() external view returns (uint256);\n    function balanceOf(address account) external view returns (uint256);\n    function transfer(address to, uint256 amount) external returns (bool);\n    function allowance(address owner, address spender) external view returns (uint256);\n    function approve(address spender, uint256 amount) external returns (bool);\n    function transferFrom(\n        address from,\n        address to,\n        uint256 amount\n    ) external returns (bool);\n}\n\ncontract PaypalUSDCAssetPool is AssetPool {\n    mapping(address => string) public sellersPaypalAccount;\n    IERC20 public usdcToken;\n    \n    mapping(address => uint256) public sellerBalance;\n\n    constructor(\n        ICommitmentVerifier _commitmentVerifier,\n        IWithdrawalVerifier _withdrawalVerifier,\n        IHasher _hasher,\n        uint32 _merkleTreeHeight,\n        address _USDCTokenAddress\n    ) AssetPool(_commitmentVerifier, \n                _withdrawalVerifier, \n                _hasher, \n                _merkleTreeHeight) {\n        usdcToken = IERC20(_USDCTokenAddress);\n    }\n\n    function configSeller(\n                            string memory _paypalEmailAddress\n                          ) external {\n        sellersPaypalAccount[msg.sender] = _paypalEmailAddress;\n    }\n\n    function _processCommitmentInsertion() internal override {\n    }\n\n    function _processWithdrawal(    \n                                address payable _recipient,\n                                address payable _relayer,\n                                uint256 _amount,\n                                uint256 _fee) \n                                internal override {\n        (bool success, ) = _recipient.call{ value: _amount - _fee }(\"\");\n\n        require(success, \"Payment to recipient failed\");\n\n        if (_fee > 0) {\n            (success, ) = _relayer.call{ value: _fee }(\"\");\n            require(success, \"Payment to relayer failed\");\n        }                                    \n    }\n\n    function getUSDCTokenAddress() external view returns (address) {\n        return address(usdcToken);\n    }\n\n/**\n    @dev Deposit funds from seller\n**/\n    function sellerDeposit(uint256 _amount) external {\n        usdcToken.transferFrom(msg.sender, address(this), _amount);\n        sellerBalance[msg.sender] += _amount;\n\n        emit SellerDeposit(msg.sender, _amount);\n    }\n\n    function getSellerBalance() external view returns (uint256) {\n        return sellerBalance[msg.sender];\n    }\n}\n",
  "sourcePath": "/media/disk2/ubuntu/zkmarket-core/contracts/PaypalUSDCAssetPool.sol",
  "compiler": {
    "name": "solc",
    "version": "0.8.0+commit.c7dfd78e.Emscripten.clang"
  },
  "schemaVersion": "3.4.7",
  "updatedAt": "2022-08-19T17:42:56.716Z",
  "networkType": "ethereum",
  "devdoc": {
    "kind": "dev",
    "methods": {
      "getLastRoot()": {
        "details": "Returns the last root"
      },
      "hashLeftRight(address,bytes32,bytes32)": {
        "details": "Hash 2 tree leaves, returns MiMC(_left, _right)"
      },
      "isKnownRoot(bytes32)": {
        "details": "Whether the root is present in the root history"
      },
      "isSpent(bytes32)": {
        "details": "whether the nullifier is already spent *"
      },
      "owner()": {
        "details": "Returns the address of the current owner."
      },
      "proveCommitment(uint256[8],uint256[2])": {
        "details": "prove a `commitment` for a transaction has correct amount",
        "params": {
          "_proofData": ": zkSNARK proof _pi_a, _pi_b, _pic",
          "_publicInputs": ": [commitmentHash, amount]*"
        }
      },
      "registerCommitment(bytes32,uint256)": {
        "details": "register transacation by transaction Oracle service (i.e., Paypal Oracle)*"
      },
      "renounceOwnership()": {
        "details": "Leaves the contract without owner. It will not be possible to call `onlyOwner` functions anymore. Can only be called by the current owner. NOTE: Renouncing ownership will leave the contract without an owner, thereby removing any functionality that is only available to the owner."
      },
      "sellerDeposit(uint256)": {
        "details": "Deposit funds from seller*"
      },
      "transferOwnership(address)": {
        "details": "Transfers ownership of the contract to a new account (`newOwner`). Can only be called by the current owner."
      },
      "withdraw(uint256[8],uint256[6])": {
        "details": "Withdraw from asset pool.",
        "params": {
          "_proofData": ": zkSNARK proof (_pi_a, _pi_b, _pi_c)",
          "_publicInputs": ":[root, nullifierHash, recipient, amount, relayer, fee] - merkle root of all deposits in the contract - hash of unique deposit nullifier to prevent double spends - the recipient of funds - amount to be withdrew - relayer that relay the withdrawal request - the fee that goes to the transaction sender (usually a relayer)    *"
        }
      },
      "zeros(uint256)": {
        "details": "provides Zero (Empty) elements for a MiMC MerkleTree. Up to 20 levels"
      }
    },
    "version": 1
  },
  "userdoc": {
    "kind": "user",
    "methods": {},
    "version": 1
  }
}