{
  "contractName": "PaypalUSDCAssetPool",
  "abi": [
    {
      "inputs": [
        {
          "internalType": "contract ICommitmentVerifier",
          "name": "_commitmentVerifier",
          "type": "address"
        },
        {
          "internalType": "contract IWithdrawalVerifier",
          "name": "_withdrawalVerifier",
          "type": "address"
        },
        {
          "internalType": "contract IHasher",
          "name": "_hasher",
          "type": "address"
        },
        {
          "internalType": "uint32",
          "name": "_merkleTreeHeight",
          "type": "uint32"
        },
        {
          "internalType": "contract IERC20",
          "name": "_USDCToken",
          "type": "address"
        }
      ],
      "stateMutability": "nonpayable",
      "type": "constructor"
    },
    {
      "anonymous": false,
      "inputs": [
        {
          "indexed": true,
          "internalType": "bytes32",
          "name": "commitment",
          "type": "bytes32"
        },
        {
          "indexed": false,
          "internalType": "bytes32",
          "name": "root",
          "type": "bytes32"
        },
        {
          "indexed": false,
          "internalType": "uint32",
          "name": "leafIndex",
          "type": "uint32"
        },
        {
          "indexed": false,
          "internalType": "bytes32[]",
          "name": "pathElements",
          "type": "bytes32[]"
        },
        {
          "indexed": false,
          "internalType": "uint32",
          "name": "pathIndices",
          "type": "uint32"
        },
        {
          "indexed": false,
          "internalType": "uint256",
          "name": "timestamp",
          "type": "uint256"
        }
      ],
      "name": "InsertCommitment",
      "type": "event"
    },
    {
      "anonymous": false,
      "inputs": [
        {
          "indexed": true,
          "internalType": "address",
          "name": "previousOwner",
          "type": "address"
        },
        {
          "indexed": true,
          "internalType": "address",
          "name": "newOwner",
          "type": "address"
        }
      ],
      "name": "OwnershipTransferred",
      "type": "event"
    },
    {
      "anonymous": false,
      "inputs": [
        {
          "indexed": true,
          "internalType": "address",
          "name": "sellerAddress",
          "type": "address"
        },
        {
          "indexed": false,
          "internalType": "string",
          "name": "paypalAccount",
          "type": "string"
        },
        {
          "indexed": false,
          "internalType": "uint256",
          "name": "amount",
          "type": "uint256"
        }
      ],
      "name": "SellerDeposit",
      "type": "event"
    },
    {
      "anonymous": false,
      "inputs": [
        {
          "indexed": false,
          "internalType": "string",
          "name": "paypalAccount",
          "type": "string"
        },
        {
          "indexed": false,
          "internalType": "uint256",
          "name": "amount",
          "type": "uint256"
        }
      ],
      "name": "SellerPayouts",
      "type": "event"
    },
    {
      "anonymous": false,
      "inputs": [
        {
          "indexed": true,
          "internalType": "address",
          "name": "to",
          "type": "address"
        },
        {
          "indexed": false,
          "internalType": "uint256",
          "name": "amount",
          "type": "uint256"
        },
        {
          "indexed": false,
          "internalType": "bytes32",
          "name": "nullifierHash",
          "type": "bytes32"
        },
        {
          "indexed": false,
          "internalType": "address",
          "name": "relayer",
          "type": "address"
        },
        {
          "indexed": false,
          "internalType": "uint256",
          "name": "fee",
          "type": "uint256"
        }
      ],
      "name": "Withdrawal",
      "type": "event"
    },
    {
      "inputs": [],
      "name": "FIELD_SIZE",
      "outputs": [
        {
          "internalType": "uint256",
          "name": "",
          "type": "uint256"
        }
      ],
      "stateMutability": "view",
      "type": "function",
      "constant": true
    },
    {
      "inputs": [],
      "name": "ROOT_HISTORY_SIZE",
      "outputs": [
        {
          "internalType": "uint32",
          "name": "",
          "type": "uint32"
        }
      ],
      "stateMutability": "view",
      "type": "function",
      "constant": true
    },
    {
      "inputs": [],
      "name": "ZERO_VALUE",
      "outputs": [
        {
          "internalType": "uint256",
          "name": "",
          "type": "uint256"
        }
      ],
      "stateMutability": "view",
      "type": "function",
      "constant": true
    },
    {
      "inputs": [
        {
          "internalType": "uint256",
          "name": "",
          "type": "uint256"
        }
      ],
      "name": "activeSellers",
      "outputs": [
        {
          "internalType": "address",
          "name": "",
          "type": "address"
        }
      ],
      "stateMutability": "view",
      "type": "function",
      "constant": true
    },
    {
      "inputs": [
        {
          "internalType": "bytes32",
          "name": "_commitment",
          "type": "bytes32"
        }
      ],
      "name": "commitmentExists",
      "outputs": [
        {
          "internalType": "bool",
          "name": "",
          "type": "bool"
        }
      ],
      "stateMutability": "view",
      "type": "function",
      "constant": true
    },
    {
      "inputs": [
        {
          "internalType": "bytes32",
          "name": "",
          "type": "bytes32"
        }
      ],
      "name": "commitmentLog",
      "outputs": [
        {
          "internalType": "uint256",
          "name": "amount",
          "type": "uint256"
        },
        {
          "internalType": "bool",
          "name": "isProven",
          "type": "bool"
        }
      ],
      "stateMutability": "view",
      "type": "function",
      "constant": true
    },
    {
      "inputs": [],
      "name": "commitmentVerifier",
      "outputs": [
        {
          "internalType": "contract ICommitmentVerifier",
          "name": "",
          "type": "address"
        }
      ],
      "stateMutability": "view",
      "type": "function",
      "constant": true
    },
    {
      "inputs": [],
      "name": "currentRootIndex",
      "outputs": [
        {
          "internalType": "uint32",
          "name": "",
          "type": "uint32"
        }
      ],
      "stateMutability": "view",
      "type": "function",
      "constant": true
    },
    {
      "inputs": [
        {
          "internalType": "uint256",
          "name": "",
          "type": "uint256"
        }
      ],
      "name": "filledSubtrees",
      "outputs": [
        {
          "internalType": "bytes32",
          "name": "",
          "type": "bytes32"
        }
      ],
      "stateMutability": "view",
      "type": "function",
      "constant": true
    },
    {
      "inputs": [],
      "name": "getLastRoot",
      "outputs": [
        {
          "internalType": "bytes32",
          "name": "",
          "type": "bytes32"
        }
      ],
      "stateMutability": "view",
      "type": "function",
      "constant": true
    },
    {
      "inputs": [
        {
          "internalType": "contract IHasher",
          "name": "_hasher",
          "type": "address"
        },
        {
          "internalType": "bytes32",
          "name": "_left",
          "type": "bytes32"
        },
        {
          "internalType": "bytes32",
          "name": "_right",
          "type": "bytes32"
        }
      ],
      "name": "hashLeftRight",
      "outputs": [
        {
          "internalType": "bytes32",
          "name": "",
          "type": "bytes32"
        }
      ],
      "stateMutability": "pure",
      "type": "function",
      "constant": true
    },
    {
      "inputs": [],
      "name": "hasher",
      "outputs": [
        {
          "internalType": "contract IHasher",
          "name": "",
          "type": "address"
        }
      ],
      "stateMutability": "view",
      "type": "function",
      "constant": true
    },
    {
      "inputs": [
        {
          "internalType": "bytes32",
          "name": "_root",
          "type": "bytes32"
        }
      ],
      "name": "isKnownRoot",
      "outputs": [
        {
          "internalType": "bool",
          "name": "",
          "type": "bool"
        }
      ],
      "stateMutability": "view",
      "type": "function",
      "constant": true
    },
    {
      "inputs": [
        {
          "internalType": "bytes32",
          "name": "_nullifierHash",
          "type": "bytes32"
        }
      ],
      "name": "isSpent",
      "outputs": [
        {
          "internalType": "bool",
          "name": "",
          "type": "bool"
        }
      ],
      "stateMutability": "view",
      "type": "function",
      "constant": true
    },
    {
      "inputs": [],
      "name": "levels",
      "outputs": [
        {
          "internalType": "uint32",
          "name": "",
          "type": "uint32"
        }
      ],
      "stateMutability": "view",
      "type": "function",
      "constant": true
    },
    {
      "inputs": [
        {
          "internalType": "uint256",
          "name": "left",
          "type": "uint256"
        },
        {
          "internalType": "uint256",
          "name": "right",
          "type": "uint256"
        }
      ],
      "name": "mimcHash",
      "outputs": [
        {
          "internalType": "bytes32",
          "name": "",
          "type": "bytes32"
        }
      ],
      "stateMutability": "view",
      "type": "function",
      "constant": true
    },
    {
      "inputs": [],
      "name": "nextIndex",
      "outputs": [
        {
          "internalType": "uint32",
          "name": "",
          "type": "uint32"
        }
      ],
      "stateMutability": "view",
      "type": "function",
      "constant": true
    },
    {
      "inputs": [
        {
          "internalType": "bytes32",
          "name": "",
          "type": "bytes32"
        }
      ],
      "name": "nullifierHashes",
      "outputs": [
        {
          "internalType": "bool",
          "name": "",
          "type": "bool"
        }
      ],
      "stateMutability": "view",
      "type": "function",
      "constant": true
    },
    {
      "inputs": [],
      "name": "owner",
      "outputs": [
        {
          "internalType": "address",
          "name": "",
          "type": "address"
        }
      ],
      "stateMutability": "view",
      "type": "function",
      "constant": true
    },
    {
      "inputs": [
        {
          "internalType": "uint256[8]",
          "name": "_proofData",
          "type": "uint256[8]"
        },
        {
          "internalType": "uint256[2]",
          "name": "_publicInputs",
          "type": "uint256[2]"
        }
      ],
      "name": "proveCommitment",
      "outputs": [],
      "stateMutability": "nonpayable",
      "type": "function"
    },
    {
      "inputs": [
        {
          "internalType": "bytes32",
          "name": "_commitment",
          "type": "bytes32"
        },
        {
          "internalType": "uint256",
          "name": "_amount",
          "type": "uint256"
        }
      ],
      "name": "registerCommitment",
      "outputs": [],
      "stateMutability": "nonpayable",
      "type": "function"
    },
    {
      "inputs": [],
      "name": "renounceOwnership",
      "outputs": [],
      "stateMutability": "nonpayable",
      "type": "function"
    },
    {
      "inputs": [
        {
          "internalType": "uint256",
          "name": "",
          "type": "uint256"
        }
      ],
      "name": "roots",
      "outputs": [
        {
          "internalType": "bytes32",
          "name": "",
          "type": "bytes32"
        }
      ],
      "stateMutability": "view",
      "type": "function",
      "constant": true
    },
    {
      "inputs": [
        {
          "internalType": "address",
          "name": "",
          "type": "address"
        }
      ],
      "name": "sellers",
      "outputs": [
        {
          "internalType": "string",
          "name": "paypalAccount",
          "type": "string"
        },
        {
          "internalType": "uint256",
          "name": "balance",
          "type": "uint256"
        }
      ],
      "stateMutability": "view",
      "type": "function",
      "constant": true
    },
    {
      "inputs": [
        {
          "internalType": "address",
          "name": "newOwner",
          "type": "address"
        }
      ],
      "name": "transferOwnership",
      "outputs": [],
      "stateMutability": "nonpayable",
      "type": "function"
    },
    {
      "inputs": [],
      "name": "usdcToken",
      "outputs": [
        {
          "internalType": "contract IERC20",
          "name": "",
          "type": "address"
        }
      ],
      "stateMutability": "view",
      "type": "function",
      "constant": true
    },
    {
      "inputs": [
        {
          "internalType": "uint256[8]",
          "name": "_proofData",
          "type": "uint256[8]"
        },
        {
          "internalType": "uint256[6]",
          "name": "_publicInputs",
          "type": "uint256[6]"
        }
      ],
      "name": "withdraw",
      "outputs": [],
      "stateMutability": "payable",
      "type": "function",
      "payable": true
    },
    {
      "inputs": [],
      "name": "withdrawalVerifier",
      "outputs": [
        {
          "internalType": "contract IWithdrawalVerifier",
          "name": "",
          "type": "address"
        }
      ],
      "stateMutability": "view",
      "type": "function",
      "constant": true
    },
    {
      "inputs": [
        {
          "internalType": "uint256",
          "name": "i",
          "type": "uint256"
        }
      ],
      "name": "zeros",
      "outputs": [
        {
          "internalType": "bytes32",
          "name": "",
          "type": "bytes32"
        }
      ],
      "stateMutability": "pure",
      "type": "function",
      "constant": true
    },
    {
      "inputs": [],
      "name": "getUSDCTokenAddress",
      "outputs": [
        {
          "internalType": "address",
          "name": "",
          "type": "address"
        }
      ],
      "stateMutability": "view",
      "type": "function",
      "constant": true
    },
    {
      "inputs": [
        {
          "internalType": "uint256",
          "name": "_amount",
          "type": "uint256"
        }
      ],
      "name": "paySeller",
      "outputs": [],
      "stateMutability": "nonpayable",
      "type": "function"
    },
    {
      "inputs": [
        {
          "internalType": "string",
          "name": "_paypalAccount",
          "type": "string"
        },
        {
          "internalType": "uint256",
          "name": "_amount",
          "type": "uint256"
        }
      ],
      "name": "sellerDeposit",
      "outputs": [],
      "stateMutability": "nonpayable",
      "type": "function"
    },
    {
      "inputs": [],
      "name": "getSellerInfo",
      "outputs": [
        {
          "components": [
            {
              "internalType": "string",
              "name": "paypalAccount",
              "type": "string"
            },
            {
              "internalType": "uint256",
              "name": "balance",
              "type": "uint256"
            }
          ],
          "internalType": "struct PaypalUSDCAssetPool.sellerInfo",
          "name": "",
          "type": "tuple"
        }
      ],
      "stateMutability": "view",
      "type": "function",
      "constant": true
    },
    {
      "inputs": [
        {
          "internalType": "address",
          "name": "_address",
          "type": "address"
        }
      ],
      "name": "getBalance",
      "outputs": [
        {
          "internalType": "uint256",
          "name": "",
          "type": "uint256"
        }
      ],
      "stateMutability": "view",
      "type": "function",
      "constant": true
    }
  ],
  "bytecode": "0x60e06040526000600360006101000a81548163ffffffff021916908363ffffffff1602179055506000600360046101000a81548163ffffffff021916908363ffffffff1602179055506000600b60006101000a81548163ffffffff021916908363ffffffff1602179055503480156200007757600080fd5b5060405162005ea438038062005ea483398181016040528101906200009d91906200090b565b84848484808260008263ffffffff1611620000ef576040517f08c379a0000000000000000000000000000000000000000000000000000000008152600401620000e69062000a9b565b60405180910390fd5b60208263ffffffff16106200013b576040517f08c379a0000000000000000000000000000000000000000000000000000000008152600401620001329062000a79565b60405180910390fd5b816000806101000a81548163ffffffff021916908363ffffffff1602179055508073ffffffffffffffffffffffffffffffffffffffff1660808173ffffffffffffffffffffffffffffffffffffffff1660601b8152505060005b8263ffffffff168163ffffffff161015620001f457620001c18163ffffffff166200031960201b60201c565b600160008363ffffffff168152602001908152602001600020819055508080620001eb9062000bbf565b91505062000195565b506200021a60018362000208919062000af0565b63ffffffff166200031960201b60201c565b6002600080815260200190815260200160002081905550505060016004819055506200025b6200024f620007ca60201b60201c565b620007d260201b60201c565b8373ffffffffffffffffffffffffffffffffffffffff1660a08173ffffffffffffffffffffffffffffffffffffffff1660601b815250508273ffffffffffffffffffffffffffffffffffffffff1660c08173ffffffffffffffffffffffffffffffffffffffff1660601b815250505050505080600860006101000a81548173ffffffffffffffffffffffffffffffffffffffff021916908373ffffffffffffffffffffffffffffffffffffffff160217905550505050505062000ca2565b60008082141562000350577f01f7c0801c91910ee966819dcbce0c940c0618cd33b2dea878b1e80275d8b94a60001b9050620007c5565b600182141562000386577f24816049a618fb575d582e49f278b6d6ed8df070dd4c6f42b5a2591bf258a5c760001b9050620007c5565b6002821415620003bc577f0aa6ec0a6dbb444786866edc923652ed38fd4c331460f9cc17664dfb08a60c4160001b9050620007c5565b6003821415620003f2577f21578f17ca98798034d7f43200df613efbbe03b2e73a71f1bbfe27719d63ec6360001b9050620007c5565b600482141562000428577f1ac20c1e1bc1ecb8fe2a8c35811b34129efd72ef5c28ec52a73feeb11d5eeb2360001b9050620007c5565b60058214156200045e577f2680ec4ecaeebf96035b6ce23cdb5fc0367199ebb14f8b10109c87f3a8e9d7cf60001b9050620007c5565b600682141562000494577f0fcde95bf0d8f94ba1d4d717cbfa919332d9021cf4d7671a3922ee8040c27c4a60001b9050620007c5565b6007821415620004ca577f14cf909d59ba36343fd30566ef5b4056991288c120b14bd37e816813fdc0992a60001b9050620007c5565b600882141562000500577f076bfc8a3e7b37e24befe23b0f698d07027f467d649ba5dc81216cd555ca4e2760001b9050620007c5565b600982141562000536577f0f57eb010e999daeebb197d21bcf54cbf5687422b044d58ba73189b82cf6134660001b9050620007c5565b600a8214156200056c577f285daa59cd5edaf5aad2ad16c350c779026c3018ed4245b9294b7b4085f9d9a260001b9050620007c5565b600b821415620005a2577f2fe3af955ad2b062d63538714fca18418c39b7c5a748c103d00b519c5be6f85360001b9050620007c5565b600c821415620005d8577f2cb004612cebb6be147a95f69014ba4aea41c32dc771851f696e30a166367c6960001b9050620007c5565b600d8214156200060e577f16b679b03ed416ac3bf10078162542fa646fec43486e9c731deccf3e58492bfb60001b9050620007c5565b600e82141562000644577f0251aabe71c1e8989634b906c9a2f85a8025b4da4aa22f414a56051327c4d0e260001b9050620007c5565b600f8214156200067a577f18178e3528883bb3587730a962e93f91df48fdc0752cfe562d7f51a3bc82886460001b9050620007c5565b6010821415620006b0577f0fc36a09626e32928aee5780008d1aff581c8052566b7e5abed902f95cbe0f4060001b9050620007c5565b6011821415620006e6577f0ca4b5f7171b55787f86e054df192604506aee630f389adb4d075ed8104c70df60001b9050620007c5565b60128214156200071c577f27c144cc7447fd24714893307f9f30debc0481d61c175e3179c2045e9159a48360001b9050620007c5565b601382141562000752577f05fcb5998a7d9ad77b15d510c5d17008582ea07273a8c974d1544602a619ff8b60001b9050620007c5565b601482141562000788577f23f27b4fa98be0dc2584d0f2b0cb352c4756880958026505da65b79bcd14d1b560001b9050620007c5565b6040517f08c379a0000000000000000000000000000000000000000000000000000000008152600401620007bc9062000abd565b60405180910390fd5b919050565b600033905090565b6000600560009054906101000a900473ffffffffffffffffffffffffffffffffffffffff16905081600560006101000a81548173ffffffffffffffffffffffffffffffffffffffff021916908373ffffffffffffffffffffffffffffffffffffffff1602179055508173ffffffffffffffffffffffffffffffffffffffff168173ffffffffffffffffffffffffffffffffffffffff167f8be0079c531659141344cd1fd0a4f28419497f9722a3daafe3b4186f6b6457e060405160405180910390a35050565b600081519050620008a98162000c20565b92915050565b600081519050620008c08162000c3a565b92915050565b600081519050620008d78162000c54565b92915050565b600081519050620008ee8162000c6e565b92915050565b600081519050620009058162000c88565b92915050565b600080600080600060a086880312156200092457600080fd5b6000620009348882890162000898565b95505060206200094788828901620008dd565b94505060406200095a88828901620008c6565b93505060606200096d88828901620008f4565b92505060806200098088828901620008af565b9150509295509295909350565b60006200099c601e8362000adf565b91507f5f6c6576656c732073686f756c64206265206c657373207468616e20333200006000830152602082019050919050565b6000620009de60238362000adf565b91507f5f6c6576656c732073686f756c642062652067726561746572207468616e207a60008301527f65726f00000000000000000000000000000000000000000000000000000000006020830152604082019050919050565b600062000a4660138362000adf565b91507f496e646578206f7574206f6620626f756e6473000000000000000000000000006000830152602082019050919050565b6000602082019050818103600083015262000a94816200098d565b9050919050565b6000602082019050818103600083015262000ab681620009cf565b9050919050565b6000602082019050818103600083015262000ad88162000a37565b9050919050565b600082825260208201905092915050565b600062000afd8262000baf565b915062000b0a8362000baf565b92508282101562000b205762000b1f62000bf1565b5b828203905092915050565b600062000b388262000b8f565b9050919050565b600062000b4c8262000b2b565b9050919050565b600062000b608262000b2b565b9050919050565b600062000b748262000b2b565b9050919050565b600062000b888262000b2b565b9050919050565b600073ffffffffffffffffffffffffffffffffffffffff82169050919050565b600063ffffffff82169050919050565b600062000bcc8262000baf565b915063ffffffff82141562000be65762000be562000bf1565b5b600182019050919050565b7f4e487b7100000000000000000000000000000000000000000000000000000000600052601160045260246000fd5b62000c2b8162000b3f565b811462000c3757600080fd5b50565b62000c458162000b53565b811462000c5157600080fd5b50565b62000c5f8162000b67565b811462000c6b57600080fd5b50565b62000c798162000b7b565b811462000c8557600080fd5b50565b62000c938162000baf565b811462000c9f57600080fd5b50565b60805160601c60a05160601c60c05160601c6151ad62000cf760003960008181610d9801526110dc015260008181611d7f015261227b0152600081816108e801528181612898015261348e01526151ad6000f3fe6080604052600436106101f95760003560e01c80638da5cb5b1161010d578063dcb4c60a116100a0578063ed33639f1161006f578063ed33639f1461077a578063f178e47c146107a5578063f2fde38b146107e2578063f8b2cb4f1461080b578063fc7e9c6f14610848576101f9565b8063dcb4c60a146106ac578063e5285dcc146106d5578063e829558814610712578063ec7329591461074f576101f9565b8063ba70f757116100dc578063ba70f757146105ee578063c2b40ae414610619578063c6e8925814610656578063cd87a3b414610681576101f9565b80638da5cb5b146105325780638ea3099e1461055d5780638f2e06651461059a57806390eeb02b146105c3576101f9565b806354504c12116101905780636d47ab721161015f5780636d47ab72146104255780636d9833e314610463578063715018a6146104a0578063787d30d0146104b757806386307865146104f5576101f9565b806354504c121461037857806356d5996b146103a357806367367e2b146103e057806368302467146103fc576101f9565b8063326405dc116101cc578063326405dc146102ce57806337f9fe26146102f7578063414a37ba146103225780634ecf518b1461034d576101f9565b80630c8a95b2146101fe57806311eac8551461022957806317cc915c146102545780632d38a38a14610291575b600080fd5b34801561020a57600080fd5b50610213610873565b60405161022091906143c1565b60405180910390f35b34801561023557600080fd5b5061023e61089d565b60405161024b9190614575565b60405180910390f35b34801561026057600080fd5b5061027b6004803603810190610276919061388e565b6108c3565b60405161028891906144ca565b60405180910390f35b34801561029d57600080fd5b506102b860048036038101906102b391906139e8565b6108e3565b6040516102c591906144e5565b60405180910390f35b3480156102da57600080fd5b506102f560048036038101906102f09190613942565b6109a3565b005b34801561030357600080fd5b5061030c610d96565b60405161031991906145ab565b60405180910390f35b34801561032e57600080fd5b50610337610dba565b60405161034491906148a8565b60405180910390f35b34801561035957600080fd5b50610362610dde565b60405161036f9190614968565b60405180910390f35b34801561038457600080fd5b5061038d610df2565b60405161039a9190614886565b60405180910390f35b3480156103af57600080fd5b506103ca60048036038101906103c59190613996565b610ee5565b6040516103d791906143c1565b60405180910390f35b6103fa60048036038101906103f59190613827565b610f24565b005b34801561040857600080fd5b50610423600480360381019061041e9190613996565b611726565b005b34801561043157600080fd5b5061044c600480360381019061044791906137c0565b6117ae565b60405161045a9291906145c6565b60405180910390f35b34801561046f57600080fd5b5061048a6004803603810190610485919061388e565b61185a565b60405161049791906144ca565b60405180910390f35b3480156104ac57600080fd5b506104b56118fb565b005b3480156104c357600080fd5b506104de60048036038101906104d9919061388e565b611983565b6040516104ec9291906148c3565b60405180910390f35b34801561050157600080fd5b5061051c6004803603810190610517919061388e565b6119b4565b60405161052991906144ca565b60405180910390f35b34801561053e57600080fd5b506105476119d6565b60405161055491906143c1565b60405180910390f35b34801561056957600080fd5b50610584600480360381019061057f91906138f3565b611a00565b60405161059191906144e5565b60405180910390f35b3480156105a657600080fd5b506105c160048036038101906105bc91906137e9565b611b72565b005b3480156105cf57600080fd5b506105d8612218565b6040516105e59190614968565b60405180910390f35b3480156105fa57600080fd5b5061060361222e565b60405161061091906144e5565b60405180910390f35b34801561062557600080fd5b50610640600480360381019061063b9190613996565b612261565b60405161064d91906144e5565b60405180910390f35b34801561066257600080fd5b5061066b612279565b604051610678919061455a565b60405180910390f35b34801561068d57600080fd5b5061069661229d565b6040516106a39190614968565b60405180910390f35b3480156106b857600080fd5b506106d360048036038101906106ce91906138b7565b6122a2565b005b3480156106e157600080fd5b506106fc60048036038101906106f7919061388e565b6123c3565b60405161070991906144ca565b60405180910390f35b34801561071e57600080fd5b5061073960048036038101906107349190613996565b6123ed565b60405161074691906144e5565b60405180910390f35b34801561075b57600080fd5b50610764612872565b60405161077191906148a8565b60405180910390f35b34801561078657600080fd5b5061078f612896565b60405161079c9190614590565b60405180910390f35b3480156107b157600080fd5b506107cc60048036038101906107c79190613996565b6128ba565b6040516107d991906144e5565b60405180910390f35b3480156107ee57600080fd5b50610809600480360381019061080491906137c0565b6128d2565b005b34801561081757600080fd5b50610832600480360381019061082d91906137c0565b6129ca565b60405161083f91906148a8565b60405180910390f35b34801561085457600080fd5b5061085d612a7e565b60405161086a9190614968565b60405180910390f35b6000600860009054906101000a900473ffffffffffffffffffffffffffffffffffffffff16905090565b600860009054906101000a900473ffffffffffffffffffffffffffffffffffffffff1681565b60076020528060005260406000206000915054906101000a900460ff1681565b6000807f000000000000000000000000000000000000000000000000000000000000000073ffffffffffffffffffffffffffffffffffffffff16633f1a1187858560006040518463ffffffff1660e01b815260040161094493929190614931565b604080518083038186803b15801561095b57600080fd5b505afa15801561096f573d6000803e3d6000fd5b505050506040513d601f19601f820116820180604052508101906109939190613a24565b5090508060001b91505092915050565b60088251116109e7576040517f08c379a00000000000000000000000000000000000000000000000000000000081526004016109de90614866565b60405180910390fd5b60008111610a2a576040517f08c379a0000000000000000000000000000000000000000000000000000000008152600401610a2190614846565b60405180910390fd5b81600960003373ffffffffffffffffffffffffffffffffffffffff1673ffffffffffffffffffffffffffffffffffffffff1681526020019081526020016000206000019080519060200190610a809291906135c3565b50600860009054906101000a900473ffffffffffffffffffffffffffffffffffffffff1673ffffffffffffffffffffffffffffffffffffffff166323b872dd3330846040518463ffffffff1660e01b8152600401610ae093929190614405565b602060405180830381600087803b158015610afa57600080fd5b505af1158015610b0e573d6000803e3d6000fd5b505050506040513d601f19601f82011682018060405250810190610b329190613865565b5080600960003373ffffffffffffffffffffffffffffffffffffffff1673ffffffffffffffffffffffffffffffffffffffff1681526020019081526020016000206001016000828254610b859190614ac4565b9250508190555060005b600a80549050811015610cd057600073ffffffffffffffffffffffffffffffffffffffff16600a8281548110610bee577f4e487b7100000000000000000000000000000000000000000000000000000000600052603260045260246000fd5b9060005260206000200160009054906101000a900473ffffffffffffffffffffffffffffffffffffffff1673ffffffffffffffffffffffffffffffffffffffff161415610cbd5733600a8281548110610c70577f4e487b7100000000000000000000000000000000000000000000000000000000600052603260045260246000fd5b9060005260206000200160006101000a81548173ffffffffffffffffffffffffffffffffffffffff021916908373ffffffffffffffffffffffffffffffffffffffff160217905550610cd0565b8080610cc890614f83565b915050610b8f565b600a80549050811415610d4157600a339080600181540180825580915050600190039060005260206000200160009091909190916101000a81548173ffffffffffffffffffffffffffffffffffffffff021916908373ffffffffffffffffffffffffffffffffffffffff1602179055505b3373ffffffffffffffffffffffffffffffffffffffff167f4645a99f404fdab3129e2a9250c36bbf046f4ed0c3e4079a3a789609dbf0b3f48484604051610d899291906145c6565b60405180910390a2505050565b7f000000000000000000000000000000000000000000000000000000000000000081565b7f30644e72e131a029b85045b68181585d2833e84879b9709143e1f593f000000181565b60008054906101000a900463ffffffff1681565b610dfa613649565b600960003373ffffffffffffffffffffffffffffffffffffffff1673ffffffffffffffffffffffffffffffffffffffff168152602001908152602001600020604051806040016040529081600082018054610e5490614f51565b80601f0160208091040260200160405190810160405280929190818152602001828054610e8090614f51565b8015610ecd5780601f10610ea257610100808354040283529160200191610ecd565b820191906000526020600020905b815481529060010190602001808311610eb057829003601f168201915b50505050508152602001600182015481525050905090565b600a8181548110610ef557600080fd5b906000526020600020016000915054906101000a900473ffffffffffffffffffffffffffffffffffffffff1681565b60026004541415610f6a576040517f08c379a0000000000000000000000000000000000000000000000000000000008152600401610f6190614826565b60405180910390fd5b60026004819055506007600082600160068110610fb0577f4e487b7100000000000000000000000000000000000000000000000000000000600052603260045260246000fd5b602002013560001b815260200190815260200160002060009054906101000a900460ff1615611014576040517f08c379a000000000000000000000000000000000000000000000000000000000815260040161100b90614706565b60405180910390fd5b8060056006811061104e577f4e487b7100000000000000000000000000000000000000000000000000000000600052603260045260246000fd5b602002013561109a82600360068110611090577f4e487b7100000000000000000000000000000000000000000000000000000000600052603260045260246000fd5b6020020135612a94565b146110da576040517f08c379a00000000000000000000000000000000000000000000000000000000081526004016110d190614666565b60405180910390fd5b7f000000000000000000000000000000000000000000000000000000000000000073ffffffffffffffffffffffffffffffffffffffff1663f398789b60405180604001604052808560006008811061115b577f4e487b7100000000000000000000000000000000000000000000000000000000600052603260045260246000fd5b602002013581526020018560016008811061119f577f4e487b7100000000000000000000000000000000000000000000000000000000600052603260045260246000fd5b602002013581525060405180604001604052806040518060400160405280886002600881106111f7577f4e487b7100000000000000000000000000000000000000000000000000000000600052603260045260246000fd5b602002013581526020018860036008811061123b577f4e487b7100000000000000000000000000000000000000000000000000000000600052603260045260246000fd5b6020020135815250815260200160405180604001604052808860046008811061128d577f4e487b7100000000000000000000000000000000000000000000000000000000600052603260045260246000fd5b60200201358152602001886005600881106112d1577f4e487b7100000000000000000000000000000000000000000000000000000000600052603260045260246000fd5b6020020135815250815250604051806040016040528087600660088110611321577f4e487b7100000000000000000000000000000000000000000000000000000000600052603260045260246000fd5b6020020135815260200187600760088110611365577f4e487b7100000000000000000000000000000000000000000000000000000000600052603260045260246000fd5b6020020135815250856040518563ffffffff1660e01b815260040161138d9493929190614483565b60206040518083038186803b1580156113a557600080fd5b505afa1580156113b9573d6000803e3d6000fd5b505050506040513d601f19601f820116820180604052508101906113dd9190613865565b61141c576040517f08c379a000000000000000000000000000000000000000000000000000000000815260040161141390614746565b60405180910390fd5b6001600760008360016006811061145c577f4e487b7100000000000000000000000000000000000000000000000000000000600052603260045260246000fd5b602002013560001b815260200190815260200160002060006101000a81548160ff02191690831515021790555061158d816002600681106114c6577f4e487b7100000000000000000000000000000000000000000000000000000000600052603260045260246000fd5b602002013582600460068110611505577f4e487b7100000000000000000000000000000000000000000000000000000000600052603260045260246000fd5b602002013583600360068110611544577f4e487b7100000000000000000000000000000000000000000000000000000000600052603260045260246000fd5b602002013584600560068110611583577f4e487b7100000000000000000000000000000000000000000000000000000000600052603260045260246000fd5b6020020135612ab6565b806002600681106115c7577f4e487b7100000000000000000000000000000000000000000000000000000000600052603260045260246000fd5b602002013573ffffffffffffffffffffffffffffffffffffffff167fd32e00d318d852975e4e7dfe93b3a71394ae5ebbe7c62c7f12d188b44c6adf4e8260036006811061163d577f4e487b7100000000000000000000000000000000000000000000000000000000600052603260045260246000fd5b60200201358360016006811061167c577f4e487b7100000000000000000000000000000000000000000000000000000000600052603260045260246000fd5b602002013560001b846004600681106116be577f4e487b7100000000000000000000000000000000000000000000000000000000600052603260045260246000fd5b6020020135856005600681106116fd577f4e487b7100000000000000000000000000000000000000000000000000000000600052603260045260246000fd5b602002013560405161171294939291906148ec565b60405180910390a260016004819055505050565b61172e612d4b565b73ffffffffffffffffffffffffffffffffffffffff1661174c6119d6565b73ffffffffffffffffffffffffffffffffffffffff16146117a2576040517f08c379a000000000000000000000000000000000000000000000000000000000815260040161179990614766565b60405180910390fd5b6117ab81612d53565b50565b60096020528060005260406000206000915090508060000180546117d190614f51565b80601f01602080910402602001604051908101604052809291908181526020018280546117fd90614f51565b801561184a5780601f1061181f5761010080835404028352916020019161184a565b820191906000526020600020905b81548152906001019060200180831161182d57829003601f168201915b5050505050908060010154905082565b60008060001b82141561187057600090506118f6565b6000600360009054906101000a900463ffffffff16905060008190505b600260008263ffffffff168152602001908152602001600020548414156118b9576001925050506118f6565b60008163ffffffff1614156118cd57601e90505b80806118d890614f27565b9150508163ffffffff168163ffffffff16141561188d576000925050505b919050565b611903612d4b565b73ffffffffffffffffffffffffffffffffffffffff166119216119d6565b73ffffffffffffffffffffffffffffffffffffffff1614611977576040517f08c379a000000000000000000000000000000000000000000000000000000000815260040161196e90614766565b60405180910390fd5b611981600061314d565b565b60066020528060005260406000206000915090508060000154908060010160009054906101000a900460ff16905082565b6000806006600084815260200190815260200160002060000154119050919050565b6000600560009054906101000a900473ffffffffffffffffffffffffffffffffffffffff16905090565b60007f30644e72e131a029b85045b68181585d2833e84879b9709143e1f593f00000018360001c10611a67576040517f08c379a0000000000000000000000000000000000000000000000000000000008152600401611a5e906146a6565b60405180910390fd5b7f30644e72e131a029b85045b68181585d2833e84879b9709143e1f593f00000018260001c10611acc576040517f08c379a0000000000000000000000000000000000000000000000000000000008152600401611ac390614726565b60405180910390fd5b60008473ffffffffffffffffffffffffffffffffffffffff16633f1a11878560001c8560001c60006040518463ffffffff1660e01b8152600401611b1293929190614931565b604080518083038186803b158015611b2957600080fd5b505afa158015611b3d573d6000803e3d6000fd5b505050506040513d601f19601f82011682018060405250810190611b619190613a24565b5090508060001b9150509392505050565b611bbc81600060028110611baf577f4e487b7100000000000000000000000000000000000000000000000000000000600052603260045260246000fd5b602002013560001b6119b4565b611bfb576040517f08c379a0000000000000000000000000000000000000000000000000000000008152600401611bf2906146e6565b60405180910390fd5b80600160028110611c35577f4e487b7100000000000000000000000000000000000000000000000000000000600052603260045260246000fd5b60200201356006600083600060028110611c78577f4e487b7100000000000000000000000000000000000000000000000000000000600052603260045260246000fd5b602002013560001b81526020019081526020016000206000015414611cd2576040517f08c379a0000000000000000000000000000000000000000000000000000000008152600401611cc9906147a6565b60405180910390fd5b600015156006600083600060028110611d14577f4e487b7100000000000000000000000000000000000000000000000000000000600052603260045260246000fd5b602002013560001b815260200190815260200160002060010160009054906101000a900460ff16151514611d7d576040517f08c379a0000000000000000000000000000000000000000000000000000000008152600401611d7490614646565b60405180910390fd5b7f000000000000000000000000000000000000000000000000000000000000000073ffffffffffffffffffffffffffffffffffffffff1663f5c9d69e604051806040016040528085600060088110611dfe577f4e487b7100000000000000000000000000000000000000000000000000000000600052603260045260246000fd5b6020020135815260200185600160088110611e42577f4e487b7100000000000000000000000000000000000000000000000000000000600052603260045260246000fd5b60200201358152506040518060400160405280604051806040016040528088600260088110611e9a577f4e487b7100000000000000000000000000000000000000000000000000000000600052603260045260246000fd5b6020020135815260200188600360088110611ede577f4e487b7100000000000000000000000000000000000000000000000000000000600052603260045260246000fd5b60200201358152508152602001604051806040016040528088600460088110611f30577f4e487b7100000000000000000000000000000000000000000000000000000000600052603260045260246000fd5b6020020135815260200188600560088110611f74577f4e487b7100000000000000000000000000000000000000000000000000000000600052603260045260246000fd5b6020020135815250815250604051806040016040528087600660088110611fc4577f4e487b7100000000000000000000000000000000000000000000000000000000600052603260045260246000fd5b6020020135815260200187600760088110612008577f4e487b7100000000000000000000000000000000000000000000000000000000600052603260045260246000fd5b6020020135815250856040518563ffffffff1660e01b8152600401612030949392919061443c565b60206040518083038186803b15801561204857600080fd5b505afa15801561205c573d6000803e3d6000fd5b505050506040513d601f19601f820116820180604052508101906120809190613865565b6120bf576040517f08c379a00000000000000000000000000000000000000000000000000000000081526004016120b690614786565b60405180910390fd5b600160066000836000600281106120ff577f4e487b7100000000000000000000000000000000000000000000000000000000600052603260045260246000fd5b602002013560001b815260200190815260200160002060010160006101000a81548160ff02191690831515021790555060008060008061217f85600060028110612172577f4e487b7100000000000000000000000000000000000000000000000000000000600052603260045260246000fd5b602002013560001b613213565b935093509350935061218f61358f565b846000600281106121c9577f4e487b7100000000000000000000000000000000000000000000000000000000600052603260045260246000fd5b602002013560001b7fa7140553099c9d3bb557e32392e58b108037a179e3ba217d3a4c69dad385035d8585858542604051612208959493929190614500565b60405180910390a2505050505050565b600360009054906101000a900463ffffffff1681565b600060026000600360009054906101000a900463ffffffff1663ffffffff16815260200190815260200160002054905090565b60026020528060005260406000206000915090505481565b7f000000000000000000000000000000000000000000000000000000000000000081565b601e81565b6122aa612d4b565b73ffffffffffffffffffffffffffffffffffffffff166122c86119d6565b73ffffffffffffffffffffffffffffffffffffffff161461231e576040517f08c379a000000000000000000000000000000000000000000000000000000000815260040161231590614766565b60405180910390fd5b612327826119b4565b15612367576040517f08c379a000000000000000000000000000000000000000000000000000000000815260040161235e90614686565b60405180910390fd5b604051806040016040528082815260200160001515815250600660008481526020019081526020016000206000820151816000015560208201518160010160006101000a81548160ff0219169083151502179055509050505050565b60006007600083815260200190815260200160002060009054906101000a900460ff169050919050565b600080821415612422577f01f7c0801c91910ee966819dcbce0c940c0618cd33b2dea878b1e80275d8b94a60001b905061286d565b6001821415612456577f24816049a618fb575d582e49f278b6d6ed8df070dd4c6f42b5a2591bf258a5c760001b905061286d565b600282141561248a577f0aa6ec0a6dbb444786866edc923652ed38fd4c331460f9cc17664dfb08a60c4160001b905061286d565b60038214156124be577f21578f17ca98798034d7f43200df613efbbe03b2e73a71f1bbfe27719d63ec6360001b905061286d565b60048214156124f2577f1ac20c1e1bc1ecb8fe2a8c35811b34129efd72ef5c28ec52a73feeb11d5eeb2360001b905061286d565b6005821415612526577f2680ec4ecaeebf96035b6ce23cdb5fc0367199ebb14f8b10109c87f3a8e9d7cf60001b905061286d565b600682141561255a577f0fcde95bf0d8f94ba1d4d717cbfa919332d9021cf4d7671a3922ee8040c27c4a60001b905061286d565b600782141561258e577f14cf909d59ba36343fd30566ef5b4056991288c120b14bd37e816813fdc0992a60001b905061286d565b60088214156125c2577f076bfc8a3e7b37e24befe23b0f698d07027f467d649ba5dc81216cd555ca4e2760001b905061286d565b60098214156125f6577f0f57eb010e999daeebb197d21bcf54cbf5687422b044d58ba73189b82cf6134660001b905061286d565b600a82141561262a577f285daa59cd5edaf5aad2ad16c350c779026c3018ed4245b9294b7b4085f9d9a260001b905061286d565b600b82141561265e577f2fe3af955ad2b062d63538714fca18418c39b7c5a748c103d00b519c5be6f85360001b905061286d565b600c821415612692577f2cb004612cebb6be147a95f69014ba4aea41c32dc771851f696e30a166367c6960001b905061286d565b600d8214156126c6577f16b679b03ed416ac3bf10078162542fa646fec43486e9c731deccf3e58492bfb60001b905061286d565b600e8214156126fa577f0251aabe71c1e8989634b906c9a2f85a8025b4da4aa22f414a56051327c4d0e260001b905061286d565b600f82141561272e577f18178e3528883bb3587730a962e93f91df48fdc0752cfe562d7f51a3bc82886460001b905061286d565b6010821415612762577f0fc36a09626e32928aee5780008d1aff581c8052566b7e5abed902f95cbe0f4060001b905061286d565b6011821415612796577f0ca4b5f7171b55787f86e054df192604506aee630f389adb4d075ed8104c70df60001b905061286d565b60128214156127ca577f27c144cc7447fd24714893307f9f30debc0481d61c175e3179c2045e9159a48360001b905061286d565b60138214156127fe577f05fcb5998a7d9ad77b15d510c5d17008582ea07273a8c974d1544602a619ff8b60001b905061286d565b6014821415612832577f23f27b4fa98be0dc2584d0f2b0cb352c4756880958026505da65b79bcd14d1b560001b905061286d565b6040517f08c379a0000000000000000000000000000000000000000000000000000000008152600401612864906147c6565b60405180910390fd5b919050565b7f01f7c0801c91910ee966819dcbce0c940c0618cd33b2dea878b1e80275d8b94a81565b7f000000000000000000000000000000000000000000000000000000000000000081565b60016020528060005260406000206000915090505481565b6128da612d4b565b73ffffffffffffffffffffffffffffffffffffffff166128f86119d6565b73ffffffffffffffffffffffffffffffffffffffff161461294e576040517f08c379a000000000000000000000000000000000000000000000000000000000815260040161294590614766565b60405180910390fd5b600073ffffffffffffffffffffffffffffffffffffffff168173ffffffffffffffffffffffffffffffffffffffff1614156129be576040517f08c379a00000000000000000000000000000000000000000000000000000000081526004016129b590614626565b60405180910390fd5b6129c78161314d565b50565b6000600860009054906101000a900473ffffffffffffffffffffffffffffffffffffffff1673ffffffffffffffffffffffffffffffffffffffff166370a08231836040518263ffffffff1660e01b8152600401612a2791906143c1565b60206040518083038186803b158015612a3f57600080fd5b505afa158015612a53573d6000803e3d6000fd5b505050506040513d601f19601f82011682018060405250810190612a7791906139bf565b9050919050565b600360049054906101000a900463ffffffff1681565b60006064600483612aa59190614d0b565b612aaf9190614b54565b9050919050565b81600860009054906101000a900473ffffffffffffffffffffffffffffffffffffffff1673ffffffffffffffffffffffffffffffffffffffff166370a08231306040518263ffffffff1660e01b8152600401612b1291906143c1565b60206040518083038186803b158015612b2a57600080fd5b505afa158015612b3e573d6000803e3d6000fd5b505050506040513d601f19601f82011682018060405250810190612b6291906139bf565b1015612ba3576040517f08c379a0000000000000000000000000000000000000000000000000000000008152600401612b9a906146c6565b60405180910390fd5b60008183612bb19190614d65565b9050600860009054906101000a900473ffffffffffffffffffffffffffffffffffffffff1673ffffffffffffffffffffffffffffffffffffffff1663a9059cbb86836040518363ffffffff1660e01b8152600401612c109291906143dc565b602060405180830381600087803b158015612c2a57600080fd5b505af1158015612c3e573d6000803e3d6000fd5b505050506040513d601f19601f82011682018060405250810190612c629190613865565b506000612c6e84613591565b9050600081841115612d39578184612c869190614d65565b9050600860009054906101000a900473ffffffffffffffffffffffffffffffffffffffff1673ffffffffffffffffffffffffffffffffffffffff1663a9059cbb87836040518363ffffffff1660e01b8152600401612ce59291906143dc565b602060405180830381600087803b158015612cff57600080fd5b505af1158015612d13573d6000803e3d6000fd5b505050506040513d601f19601f82011682018060405250810190612d379190613865565b505b612d4283612d53565b50505050505050565b600033905090565b6000600b60009054906101000a900463ffffffff16905060005b6000600a600b60009054906101000a900463ffffffff1663ffffffff1681548110612dc1577f4e487b7100000000000000000000000000000000000000000000000000000000600052603260045260246000fd5b9060005260206000200160009054906101000a900473ffffffffffffffffffffffffffffffffffffffff169050600073ffffffffffffffffffffffffffffffffffffffff168173ffffffffffffffffffffffffffffffffffffffff161461304b5760008285612e309190614d65565b9050600081600960008573ffffffffffffffffffffffffffffffffffffffff1673ffffffffffffffffffffffffffffffffffffffff1681526020019081526020016000206001015410612e8557819050612f67565b600960008473ffffffffffffffffffffffffffffffffffffffff1673ffffffffffffffffffffffffffffffffffffffff1681526020019081526020016000206001015490506000600a600b60009054906101000a900463ffffffff1663ffffffff1681548110612f1e577f4e487b7100000000000000000000000000000000000000000000000000000000600052603260045260246000fd5b9060005260206000200160006101000a81548173ffffffffffffffffffffffffffffffffffffffff021916908373ffffffffffffffffffffffffffffffffffffffff1602179055505b80600960008573ffffffffffffffffffffffffffffffffffffffff1673ffffffffffffffffffffffffffffffffffffffff1681526020019081526020016000206001016000828254612fb99190614d65565b925050819055507fb5cbad64b1033557c94bbab6d5d4f1b8a2ffcc50f0cd80bb3763a7ba998fb80b600960008573ffffffffffffffffffffffffffffffffffffffff1673ffffffffffffffffffffffffffffffffffffffff168152602001908152602001600020600001826040516130329291906145f6565b60405180910390a180846130469190614ac4565b935050505b600b600081819054906101000a900463ffffffff168092919061306d90614fcc565b91906101000a81548163ffffffff021916908363ffffffff16021790555050600a80549050600b60009054906101000a900463ffffffff1663ffffffff1614156130d4576000600b60006101000a81548163ffffffff021916908363ffffffff1602179055505b50828110801561310257508163ffffffff16600b60009054906101000a900463ffffffff1663ffffffff1614155b612d6d57828114613148576040517f08c379a000000000000000000000000000000000000000000000000000000000815260040161313f90614806565b60405180910390fd5b505050565b6000600560009054906101000a900473ffffffffffffffffffffffffffffffffffffffff16905081600560006101000a81548173ffffffffffffffffffffffffffffffffffffffff021916908373ffffffffffffffffffffffffffffffffffffffff1602179055508173ffffffffffffffffffffffffffffffffffffffff168173ffffffffffffffffffffffffffffffffffffffff167f8be0079c531659141344cd1fd0a4f28419497f9722a3daafe3b4186f6b6457e060405160405180910390a35050565b6000806060600080600360049054906101000a900463ffffffff16905060008054906101000a900463ffffffff16600261324d9190614c09565b63ffffffff168163ffffffff16141561329b576040517f08c379a0000000000000000000000000000000000000000000000000000000008152600401613292906147e6565b60405180910390fd5b6000819050600087905060008060008060009054906101000a900463ffffffff1663ffffffff1667ffffffffffffffff811115613301577f4e487b7100000000000000000000000000000000000000000000000000000000600052604160045260246000fd5b60405190808252806020026020018201604052801561332f5781602001602082028036833780820191505090505b5090506000805b60008054906101000a900463ffffffff1663ffffffff168163ffffffff1610156134d85760006002886133699190614ff9565b63ffffffff161415613405578594506133878163ffffffff166123ed565b935085600160008363ffffffff1681526020019081526020016000208190555083838263ffffffff16815181106133e7577f4e487b7100000000000000000000000000000000000000000000000000000000600052603260045260246000fd5b60200260200101818152505060018263ffffffff16901b9150613489565b600160008263ffffffff16815260200190815260200160002054945085935084838263ffffffff1681518110613464577f4e487b7100000000000000000000000000000000000000000000000000000000600052603260045260246000fd5b6020026020010181815250506001808363ffffffff16901b6134869190614b1a565b91505b6134b47f00000000000000000000000000000000000000000000000000000000000000008686611a00565b95506002876134c39190614b85565b965080806134d090614fcc565b915050613336565b506000601e6001600360009054906101000a900463ffffffff166134fc9190614b1a565b6135069190614ff9565b905080600360006101000a81548163ffffffff021916908363ffffffff16021790555085600260008363ffffffff168152602001908152602001600020819055506001886135549190614b1a565b600360046101000a81548163ffffffff021916908363ffffffff160217905550858884849b509b509b509b5050505050505050509193509193565b565b600062077a1061271061015d846135a89190614d0b565b6135b29190614b54565b6135bc9190614ac4565b9050919050565b8280546135cf90614f51565b90600052602060002090601f0160209004810192826135f15760008555613638565b82601f1061360a57805160ff1916838001178555613638565b82800160010185558215613638579182015b8281111561363757825182559160200191906001019061361c565b5b5090506136459190613663565b5090565b604051806040016040528060608152602001600081525090565b5b8082111561367c576000816000905550600101613664565b5090565b600061369361368e846149b4565b614983565b9050828152602081018484840111156136ab57600080fd5b6136b6848285614ee5565b509392505050565b6000813590506136cd81615104565b92915050565b6000819050826020600202820111156136eb57600080fd5b92915050565b60008190508260206006028201111561370957600080fd5b92915050565b60008190508260206008028201111561372757600080fd5b92915050565b60008151905061373c8161511b565b92915050565b60008135905061375181615132565b92915050565b60008135905061376681615149565b92915050565b600082601f83011261377d57600080fd5b813561378d848260208601613680565b91505092915050565b6000813590506137a581615160565b92915050565b6000815190506137ba81615160565b92915050565b6000602082840312156137d257600080fd5b60006137e0848285016136be565b91505092915050565b60008061014083850312156137fd57600080fd5b600061380b8582860161370f565b92505061010061381d858286016136d3565b9150509250929050565b6000806101c0838503121561383b57600080fd5b60006138498582860161370f565b92505061010061385b858286016136f1565b9150509250929050565b60006020828403121561387757600080fd5b60006138858482850161372d565b91505092915050565b6000602082840312156138a057600080fd5b60006138ae84828501613742565b91505092915050565b600080604083850312156138ca57600080fd5b60006138d885828601613742565b92505060206138e985828601613796565b9150509250929050565b60008060006060848603121561390857600080fd5b600061391686828701613757565b935050602061392786828701613742565b925050604061393886828701613742565b9150509250925092565b6000806040838503121561395557600080fd5b600083013567ffffffffffffffff81111561396f57600080fd5b61397b8582860161376c565b925050602061398c85828601613796565b9150509250929050565b6000602082840312156139a857600080fd5b60006139b684828501613796565b91505092915050565b6000602082840312156139d157600080fd5b60006139df848285016137ab565b91505092915050565b600080604083850312156139fb57600080fd5b6000613a0985828601613796565b9250506020613a1a85828601613796565b9150509250929050565b60008060408385031215613a3757600080fd5b6000613a45858286016137ab565b9250506020613a56858286016137ab565b9150509250929050565b6000613a6c8383613b8b565b60408301905092915050565b6000613a848383613c58565b60208301905092915050565b6000613a9c8383614394565b60208301905092915050565b613ab181614e0d565b82525050565b613ac081614d99565b82525050565b613acf81614a1d565b613ad98184614a70565b9250613ae4826149e4565b8060005b83811015613b15578151613afc8782613a60565b9650613b0783614a49565b925050600181019050613ae8565b505050505050565b6000613b2882614a28565b613b328185614a7b565b9350613b3d836149ee565b8060005b83811015613b6e578151613b558882613a78565b9750613b6083614a56565b925050600181019050613b41565b5085935050505092915050565b613b8760408383614ee5565b5050565b613b9481614a33565b613b9e8184614a8c565b9250613ba9826149fe565b8060005b83811015613bda578151613bc18782613a90565b9650613bcc83614a63565b925050600181019050613bad565b505050505050565b613beb81614a33565b613bf58184614a97565b9250613c00826149fe565b8060005b83811015613c31578151613c188782613a90565b9650613c2383614a63565b925050600181019050613c04565b505050505050565b613c4560c08383614ee5565b5050565b613c5281614dab565b82525050565b613c6181614db7565b82525050565b613c7081614db7565b82525050565b613c7f81614e1f565b82525050565b613c8e81614e43565b82525050565b613c9d81614e67565b82525050565b613cac81614e8b565b82525050565b613cbb81614eaf565b82525050565b6000613ccc82614a3e565b613cd68185614aa2565b9350613ce6818560208601614ef4565b613cef816150e6565b840191505092915050565b6000613d0582614a3e565b613d0f8185614ab3565b9350613d1f818560208601614ef4565b613d28816150e6565b840191505092915050565b60008154613d4081614f51565b613d4a8186614ab3565b94506001821660008114613d655760018114613d7757613daa565b60ff1983168652602086019350613daa565b613d8085614a08565b60005b83811015613da257815481890152600182019150602081019050613d83565b808801955050505b50505092915050565b6000613dc0602683614ab3565b91507f4f776e61626c653a206e6577206f776e657220697320746865207a65726f206160008301527f64647265737300000000000000000000000000000000000000000000000000006020830152604082019050919050565b6000613e26602483614ab3565b91507f436f6d6d69746d656e742068617320616c7265616479206265656e207665726960008301527f66696564000000000000000000000000000000000000000000000000000000006020830152604082019050919050565b6000613e8c601283614ab3565b91507f57726f6e672066656520737570706c69656400000000000000000000000000006000830152602082019050919050565b6000613ecc601d83614ab3565b91507f54686520636f6d6d69746d656e7420616c7265616479206578697374730000006000830152602082019050919050565b6000613f0c602083614ab3565b91507f5f6c6566742073686f756c6420626520696e7369646520746865206669656c646000830152602082019050919050565b6000613f4c601d83614ab3565b91507f4e6f7420656e6f75676820617373657420696e207468697320706f6f6c0000006000830152602082019050919050565b6000613f8c601383614ab3565b91507f4e6f20636f6d6d69746d656e7420666f756e64000000000000000000000000006000830152602082019050919050565b6000613fcc601f83614ab3565b91507f546865206e6f74652068617320616c7265616479206265656e207370656e74006000830152602082019050919050565b600061400c602183614ab3565b91507f5f72696768742073686f756c6420626520696e7369646520746865206669656c60008301527f64000000000000000000000000000000000000000000000000000000000000006020830152604082019050919050565b6000614072601883614ab3565b91507f496e76616c6964207769746864726177616c2070726f6f6600000000000000006000830152602082019050919050565b60006140b2602083614ab3565b91507f4f776e61626c653a2063616c6c6572206973206e6f7420746865206f776e65726000830152602082019050919050565b60006140f2601883614ab3565b91507f496e76616c696420636f6d6d69746d656e742070726f6f6600000000000000006000830152602082019050919050565b6000614132600f83614ab3565b91507f416d6f756e74206d69736d6174636800000000000000000000000000000000006000830152602082019050919050565b6000614172601383614ab3565b91507f496e646578206f7574206f6620626f756e6473000000000000000000000000006000830152602082019050919050565b60006141b2603083614ab3565b91507f4d65726b6c6520747265652069732066756c6c2e204e6f206d6f7265206c656160008301527f7665732063616e206265206164646564000000000000000000000000000000006020830152604082019050919050565b6000614218602383614ab3565b91507f4e6f7420656e6f7567682066756e6420696e2073656c6c657227732062616c6160008301527f6e636500000000000000000000000000000000000000000000000000000000006020830152604082019050919050565b600061427e601f83614ab3565b91507f5265656e7472616e637947756172643a207265656e7472616e742063616c6c006000830152602082019050919050565b60006142be602383614ab3565b91507f54686520616d6f756e742073686f756c642067726561746572207468616e207a60008301527f65726f00000000000000000000000000000000000000000000000000000000006020830152604082019050919050565b6000614324601283614ab3565b91507f4261642070617970616c206163636f756e7400000000000000000000000000006000830152602082019050919050565b600060408301600083015184820360008601526143748282613cc1565b91505060208301516143896020860182614394565b508091505092915050565b61439d81614df3565b82525050565b6143ac81614df3565b82525050565b6143bb81614dfd565b82525050565b60006020820190506143d66000830184613ab7565b92915050565b60006040820190506143f16000830185613aa8565b6143fe60208301846143a3565b9392505050565b600060608201905061441a6000830186613ab7565b6144276020830185613ab7565b61443460408301846143a3565b949350505050565b6000610140820190506144526000830187613be2565b61445f6040830186613ac6565b61446c60c0830185613be2565b61447a610100830184613b7b565b95945050505050565b60006101c0820190506144996000830187613be2565b6144a66040830186613ac6565b6144b360c0830185613be2565b6144c1610100830184613c39565b95945050505050565b60006020820190506144df6000830184613c49565b92915050565b60006020820190506144fa6000830184613c67565b92915050565b600060a0820190506145156000830188613c67565b61452260208301876143b2565b81810360408301526145348186613b1d565b905061454360608301856143b2565b61455060808301846143a3565b9695505050505050565b600060208201905061456f6000830184613c76565b92915050565b600060208201905061458a6000830184613c85565b92915050565b60006020820190506145a56000830184613c94565b92915050565b60006020820190506145c06000830184613ca3565b92915050565b600060408201905081810360008301526145e08185613cfa565b90506145ef60208301846143a3565b9392505050565b600060408201905081810360008301526146108185613d33565b905061461f60208301846143a3565b9392505050565b6000602082019050818103600083015261463f81613db3565b9050919050565b6000602082019050818103600083015261465f81613e19565b9050919050565b6000602082019050818103600083015261467f81613e7f565b9050919050565b6000602082019050818103600083015261469f81613ebf565b9050919050565b600060208201905081810360008301526146bf81613eff565b9050919050565b600060208201905081810360008301526146df81613f3f565b9050919050565b600060208201905081810360008301526146ff81613f7f565b9050919050565b6000602082019050818103600083015261471f81613fbf565b9050919050565b6000602082019050818103600083015261473f81613fff565b9050919050565b6000602082019050818103600083015261475f81614065565b9050919050565b6000602082019050818103600083015261477f816140a5565b9050919050565b6000602082019050818103600083015261479f816140e5565b9050919050565b600060208201905081810360008301526147bf81614125565b9050919050565b600060208201905081810360008301526147df81614165565b9050919050565b600060208201905081810360008301526147ff816141a5565b9050919050565b6000602082019050818103600083015261481f8161420b565b9050919050565b6000602082019050818103600083015261483f81614271565b9050919050565b6000602082019050818103600083015261485f816142b1565b9050919050565b6000602082019050818103600083015261487f81614317565b9050919050565b600060208201905081810360008301526148a08184614357565b905092915050565b60006020820190506148bd60008301846143a3565b92915050565b60006040820190506148d860008301856143a3565b6148e56020830184613c49565b9392505050565b600060808201905061490160008301876143a3565b61490e6020830186613c67565b61491b6040830185613ab7565b61492860608301846143a3565b95945050505050565b600060608201905061494660008301866143a3565b61495360208301856143a3565b6149606040830184613cb2565b949350505050565b600060208201905061497d60008301846143b2565b92915050565b6000604051905081810181811067ffffffffffffffff821117156149aa576149a96150b7565b5b8060405250919050565b600067ffffffffffffffff8211156149cf576149ce6150b7565b5b601f19601f8301169050602081019050919050565b6000819050919050565b6000819050602082019050919050565b6000819050919050565b60008190508160005260206000209050919050565b600060029050919050565b600081519050919050565b600060029050919050565b600081519050919050565b6000602082019050919050565b6000602082019050919050565b6000602082019050919050565b600081905092915050565b600082825260208201905092915050565b600081905092915050565b600081905092915050565b600082825260208201905092915050565b600082825260208201905092915050565b6000614acf82614df3565b9150614ada83614df3565b9250827fffffffffffffffffffffffffffffffffffffffffffffffffffffffffffffffff03821115614b0f57614b0e61502a565b5b828201905092915050565b6000614b2582614dfd565b9150614b3083614dfd565b92508263ffffffff03821115614b4957614b4861502a565b5b828201905092915050565b6000614b5f82614df3565b9150614b6a83614df3565b925082614b7a57614b79615059565b5b828204905092915050565b6000614b9082614dfd565b9150614b9b83614dfd565b925082614bab57614baa615059565b5b828204905092915050565b6000808291508390505b6001851115614c0057808604811115614bdc57614bdb61502a565b5b6001851615614beb5780820291505b8081029050614bf9856150f7565b9450614bc0565b94509492505050565b6000614c1482614dfd565b9150614c1f83614dfd565b9250614c3063ffffffff8484614c38565b905092915050565b600082614c485760019050614d04565b81614c565760009050614d04565b8160018114614c6c5760028114614c7657614ca5565b6001915050614d04565b60ff841115614c8857614c8761502a565b5b8360020a915084821115614c9f57614c9e61502a565b5b50614d04565b5060208310610133831016604e8410600b8410161715614cda5782820a905083811115614cd557614cd461502a565b5b614d04565b614ce78484846001614bb6565b92509050818404811115614cfe57614cfd61502a565b5b81810290505b9392505050565b6000614d1682614df3565b9150614d2183614df3565b9250817fffffffffffffffffffffffffffffffffffffffffffffffffffffffffffffffff0483118215151615614d5a57614d5961502a565b5b828202905092915050565b6000614d7082614df3565b9150614d7b83614df3565b925082821015614d8e57614d8d61502a565b5b828203905092915050565b6000614da482614dd3565b9050919050565b60008115159050919050565b6000819050919050565b6000614dcc82614d99565b9050919050565b600073ffffffffffffffffffffffffffffffffffffffff82169050919050565b6000819050919050565b600063ffffffff82169050919050565b6000614e1882614ec1565b9050919050565b6000614e2a82614e31565b9050919050565b6000614e3c82614dd3565b9050919050565b6000614e4e82614e55565b9050919050565b6000614e6082614dd3565b9050919050565b6000614e7282614e79565b9050919050565b6000614e8482614dd3565b9050919050565b6000614e9682614e9d565b9050919050565b6000614ea882614dd3565b9050919050565b6000614eba82614df3565b9050919050565b6000614ecc82614ed3565b9050919050565b6000614ede82614dd3565b9050919050565b82818337600083830152505050565b60005b83811015614f12578082015181840152602081019050614ef7565b83811115614f21576000848401525b50505050565b6000614f3282614dfd565b91506000821415614f4657614f4561502a565b5b600182039050919050565b60006002820490506001821680614f6957607f821691505b60208210811415614f7d57614f7c615088565b5b50919050565b6000614f8e82614df3565b91507fffffffffffffffffffffffffffffffffffffffffffffffffffffffffffffffff821415614fc157614fc061502a565b5b600182019050919050565b6000614fd782614dfd565b915063ffffffff821415614fee57614fed61502a565b5b600182019050919050565b600061500482614dfd565b915061500f83614dfd565b92508261501f5761501e615059565b5b828206905092915050565b7f4e487b7100000000000000000000000000000000000000000000000000000000600052601160045260246000fd5b7f4e487b7100000000000000000000000000000000000000000000000000000000600052601260045260246000fd5b7f4e487b7100000000000000000000000000000000000000000000000000000000600052602260045260246000fd5b7f4e487b7100000000000000000000000000000000000000000000000000000000600052604160045260246000fd5b6000601f19601f8301169050919050565b60008160011c9050919050565b61510d81614d99565b811461511857600080fd5b50565b61512481614dab565b811461512f57600080fd5b50565b61513b81614db7565b811461514657600080fd5b50565b61515281614dc1565b811461515d57600080fd5b50565b61516981614df3565b811461517457600080fd5b5056fea264697066735822122077f34da731270616d0ea7fc37c3b59bb60201fe1ca80527ce6c1e71f52b5edea64736f6c63430008000033",
  "immutableReferences": {
    "228": [
      {
        "length": 32,
        "start": 7551
      },
      {
        "length": 32,
        "start": 8827
      }
    ],
    "231": [
      {
        "length": 32,
        "start": 3480
      },
      {
        "length": 32,
        "start": 4316
      }
    ],
    "709": [
      {
        "length": 32,
        "start": 2280
      },
      {
        "length": 32,
        "start": 10392
      },
      {
        "length": 32,
        "start": 13454
      }
    ]
  },
  "source": "// SPDX-License-Identifier: MIT\npragma solidity ^0.8.0;\n\nimport \"./AssetPool.sol\";\n\ninterface IERC20 {\n    function totalSupply() external view returns (uint256);\n    function balanceOf(address account) external view returns (uint256);\n    function transfer(address to, uint256 amount) external returns (bool);\n    function allowance(address owner, address spender) external view returns (uint256);\n    function approve(address spender, uint256 amount) external returns (bool);\n    function transferFrom(\n        address from,\n        address to,\n        uint256 amount\n    ) external returns (bool);\n}\n\ncontract PaypalUSDCAssetPool is AssetPool {\n    IERC20 public usdcToken;\n\n    struct sellerInfo {\n        string paypalAccount;\n        uint balance;\n    }\n\n    mapping(address => sellerInfo) public sellers;\n    address[] public activeSellers;\n    uint32 currentSellerIndex = 0;\n\n    event SellerDeposit(address indexed sellerAddress, string paypalAccount, uint256 amount);\n    event SellerPayouts(string paypalAccount, uint256 amount);\n\n    constructor(\n        ICommitmentVerifier _commitmentVerifier,\n        IWithdrawalVerifier _withdrawalVerifier,\n        IHasher _hasher,\n        uint32 _merkleTreeHeight,\n        IERC20 _USDCToken\n    ) AssetPool(_commitmentVerifier, \n                _withdrawalVerifier, \n                _hasher, \n                _merkleTreeHeight) {\n        usdcToken = _USDCToken;\n    }\n\n    function getUSDCTokenAddress() external view returns (address) {\n        return address(usdcToken);\n    }\n\n    function _processCommitmentInsertion() internal override {\n    }\n\n    function _processWithdrawal(\n                                address payable _recipient,\n                                address payable _relayer,\n                                uint256 _amount,\n                                uint256 _fee) \n                                internal override {                                    \n        require(usdcToken.balanceOf(address(this)) >= _amount, \n                    \"Not enough asset in this pool\");\n                    \n        uint256 transferAmount = _amount - _fee;\n        usdcToken.transfer(_recipient, transferAmount);\n\n        uint256 paypalFee = _getPaypalFee(_amount);\n        uint256 relayerFee = 0;\n        if (_fee > paypalFee ) {\n            relayerFee = _fee - paypalFee;\n            usdcToken.transfer(_relayer, relayerFee);\n        }\n\n        _paySeller(transferAmount);\n    }\n\n/**\n    @dev Make payouts instructions to paypal to sellers.\n         Making it public for testing purpose.\n**/\n    function paySeller(uint256 _amount) external onlyOwner {\n        _paySeller(_amount);\n    }\n\n    function _paySeller(uint256 _amount) private {\n        uint32 savedIndex = currentSellerIndex;\n        uint256 accumulated = 0;\n\n        do {\n            address sellerAddress = activeSellers[currentSellerIndex];\n            if (sellerAddress != address(0)){\n                uint256 remaining = _amount - accumulated;\n                uint256 deduct;\n\n                if (sellers[sellerAddress].balance >= remaining) {\n                    deduct = remaining;\n                } else {\n                    deduct = sellers[sellerAddress].balance;\n                    activeSellers[currentSellerIndex] = address(0); //remove this address since its balance is 0\n                }\n                sellers[sellerAddress].balance -= deduct;\n                emit SellerPayouts(sellers[sellerAddress].paypalAccount, deduct);\n\n                accumulated += deduct;\n            }\n\n            currentSellerIndex++;\n            if (currentSellerIndex == activeSellers.length) currentSellerIndex = 0;\n        } while (accumulated < _amount && currentSellerIndex != savedIndex);\n\n        require (accumulated == _amount, \"Not enough fund in seller's balance\");\n    }\n\n/**\n    @dev Calculate paypal fee: USD_Amount * 0.349% + 0.49\n**/\n    function _getPaypalFee(uint256 _amount) pure private returns (uint256) {\n        return (_amount * 349) / 10000 + 49 * (10 ** 4);\n    }\n\n/** \n    @dev Calculate fee: 4%\n**/\n    function _getFee(uint256 _amount) pure internal override returns (uint256) {\n        return (_amount * 4) / 100;\n    }\n\n/**\n    @dev Deposit funds from seller\n**/\n    function sellerDeposit(string memory _paypalAccount, uint256 _amount) external {            \n        require(bytes(_paypalAccount).length > 8, \"Bad paypal account\");\n        require(_amount > 0, \"The amount should greater than zero\");\n\n        sellers[msg.sender].paypalAccount = _paypalAccount;\n        usdcToken.transferFrom(msg.sender, address(this), _amount);\n        sellers[msg.sender].balance += _amount;\n\n        // Insert seller to the available spot in activeSellers\n        uint i = 0;\n        for (; i < activeSellers.length; i++) {\n            if (activeSellers[i] == address(0)) {\n                activeSellers[i] = msg.sender;\n                break;\n            }\n        }\n        if (i == activeSellers.length) {\n            activeSellers.push(msg.sender);\n        }\n\n        emit SellerDeposit(msg.sender, _paypalAccount, _amount);\n    }\n\n    function getSellerInfo() external view returns (sellerInfo memory) {\n        return sellers[msg.sender];\n    }\n\n    function getBalance(address _address) view external override returns (uint256) {\n        return usdcToken.balanceOf(_address);\n    }\n}",
  "sourcePath": "/media/disk2/ubuntu/zkmarket-core/contracts/PaypalUSDCAssetPool.sol",
  "compiler": {
    "name": "solc",
    "version": "0.8.0+commit.c7dfd78e.Emscripten.clang"
  },
  "schemaVersion": "3.4.7",
  "updatedAt": "2022-08-20T13:49:48.527Z",
  "networkType": "ethereum",
  "devdoc": {
    "kind": "dev",
    "methods": {
      "getLastRoot()": {
        "details": "Returns the last root"
      },
      "hashLeftRight(address,bytes32,bytes32)": {
        "details": "Hash 2 tree leaves, returns MiMC(_left, _right)"
      },
      "isKnownRoot(bytes32)": {
        "details": "Whether the root is present in the root history"
      },
      "isSpent(bytes32)": {
        "details": "whether the nullifier is already spent *"
      },
      "owner()": {
        "details": "Returns the address of the current owner."
      },
      "paySeller(uint256)": {
        "details": "Make payouts instructions to paypal to sellers. Making it public for testing purpose.*"
      },
      "proveCommitment(uint256[8],uint256[2])": {
        "details": "prove a `commitment` for a transaction has correct amount",
        "params": {
          "_proofData": ": zkSNARK proof _pi_a, _pi_b, _pic",
          "_publicInputs": ": [commitmentHash, amount]*"
        }
      },
      "registerCommitment(bytes32,uint256)": {
        "details": "register transacation by transaction Oracle service (i.e., Paypal Oracle)*"
      },
      "renounceOwnership()": {
        "details": "Leaves the contract without owner. It will not be possible to call `onlyOwner` functions anymore. Can only be called by the current owner. NOTE: Renouncing ownership will leave the contract without an owner, thereby removing any functionality that is only available to the owner."
      },
      "sellerDeposit(string,uint256)": {
        "details": "Deposit funds from seller*"
      },
      "transferOwnership(address)": {
        "details": "Transfers ownership of the contract to a new account (`newOwner`). Can only be called by the current owner."
      },
      "withdraw(uint256[8],uint256[6])": {
        "details": "Withdraw from asset pool.",
        "params": {
          "_proofData": ": zkSNARK proof (_pi_a, _pi_b, _pi_c)",
          "_publicInputs": ":[root, nullifierHash, recipient, amount, relayer, fee] - merkle root of all deposits in the contract - hash of unique deposit nullifier to prevent double spends - the recipient of funds - amount to be withdrew - relayer that relay the withdrawal request - the fee that goes to the transaction sender (usually a relayer)    *"
        }
      },
      "zeros(uint256)": {
        "details": "provides Zero (Empty) elements for a MiMC MerkleTree. Up to 20 levels"
      }
    },
    "version": 1
  },
  "userdoc": {
    "kind": "user",
    "methods": {},
    "version": 1
  }
}